:100000000C94AA000C94CB000C94CB000C94CB0065
:100010000C94CB000C94CB000C94CB000C94CB0034
:100020000C94CB000C94CB000C94CB000C94CB0024
:100030000C94CB000C94CB000C94CB000C94CB0014
:100040000C94CB000C94CB000C94CB000C94CB0004
:100050000C94CB000C94CB000C94CB000C94CB00F4
:100060000C94CB000C94B4020C94CB000C94CB00F9
:100070000C94CB000C94CB000C94CB000C94CB00D4
:100080000C94CB000C94CB000C94CB000C94CB00C4
:100090000C943E020C94CB000C94CB000C94CB003F
:1000A0000C94CB000C94CB000C94CB000C94CB00A4
:1000B0000C94CB000C94CB000C94CB000C942A0332
:1000C0000C94CB000C94CB000C94CB000C94C80186
:1000D0000C94CB000C94CB000C9452010C94CB00EC
:1000E0000C94CB000C9412030C9426020C94320254
:1000F0000C94B8010C94FA020C949C020C942E02FD
:100100000C9422030C94B4010C94AC020C941603CE
:100110000C94A4020C943A020C9498010C94B00232
:100120000C94BC010C9484020C94C0010C94B0019A
:100130000C94A8020C941A030C940E020C942A023C
:100140000C9436020C94A0020C94C4010C94260367
:100150000C941E0311241FBECFEFD1E2DEBFCDBF32
:1001600000E00CBF12E0A0E0B2E0ECECFFE000E049
:100170000BBF02C007900D92A631B107D9F722E05C
:10018000A6E1B2E001C01D92A235B207E1F70E94DC
:100190004F030C94E4070C9400009091D00095FF5D
:1001A000FCCF8093D6000895EBE0F1E0808184607D
:1001B00080830895EBE0F1E080818B7F8083089558
:1001C000CF93DF93CDB7DEB78FEF0E94CD0082E0F3
:1001D0000E94CD008F810E94CD0089850E94CD00B4
:1001E0008EEF0E94CD00DF91CF910895CF93DF93E2
:1001F000C82FD62F80910B016623F1F18860809380
:100200000B01C7FF3BC0289AC6FF3AC0299AC5FF19
:1002100039C02A9AC4FF38C02B9A00C00E94D4006B
:1002200082E08A95F1F700C00E94DA00C3FF2EC079
:10023000289AC2FF2DC0299AC1FF2CC02A9AC0FF5C
:100240002BC02B9A00C00E94D40092E09A95F1F73F
:1002500000C00E94DA00289A299A2A9A2B9AD11172
:100260001DC0C430D8F48FE999E10197F1F700C0BF
:100270000000DF91CF910895877FC1CF2898C4CF28
:100280002998C5CF2A98C6CF2B98C7CF2898D1CF09
:100290002998D2CF2A98D3CF2B98D4CF95ED9A9581
:1002A000F1F7E6CF1F920F920FB60F9211240BB603
:1002B0000F922F938F939F93EF93FF93909136011B
:1002C0009E3F19F5209103028091510228131BC013
:1002D0008091500280934F0280914E0280934D0294
:1002E00080914C0280934B0280914A028093490294
:1002F0008091480280934702809146028093450294
:1003000081E08093440210925102E0915102E15049
:10031000E730A8F4F0E08827EF56FE4F8F4F0C949B
:1003200006059801B001B401B801BC01C001C401C7
:1003300082E0890F8093030282E0809351029F3F05
:1003400019F481E080935102FF91EF919F918F9179
:100350002F910F900BBE0F900FBE0F901F9018950E
:100360009093500283E0E9CF90934E0284E0E5CF72
:1003700090934C0285E0E1CF90934A0286E0DDCF76
:100380009093480287E0D9CF9093460288E0D5CF7A
:100390001F920F920FB60F9211240BB60F922F934C
:1003A0008F939F93EF93FF939091D6009E3F19F503
:1003B000209102028091430228131BC080914202C7
:1003C000809341028091400280933F0280913E02DF
:1003D00080933D0280913C0280933B0280913A02DF
:1003E00080933902809138028093370281E08093B4
:1003F000360210924302E0914302E150E730A8F444
:10040000F0E08827E95FFD4F8F4F0C9406050E0240
:1004100026022A022E02320236023A0282E0890FB6
:100420008093020282E0809343029F3F19F481E0AF
:1004300080934302FF91EF919F918F912F910F90A5
:100440000BBE0F900FBE0F901F9018959093420215
:1004500083E0E9CF9093400284E0E5CF90933E02A1
:1004600085E0E1CF90933C0286E0DDCF90933A02A5
:1004700087E0D9CF9093380288E0D5CF1F920F92B2
:100480000FB60F9211240BB60F922F938F939F9359
:10049000EF93FF939091CE009E3F19F520910102BA
:1004A0008091350228131BC080913402809333025F
:1004B00080913202809331028091300280932F022A
:1004C00080912E0280932D0280912C0280932B022A
:1004D00080912A028093290281E080932802109261
:1004E0003502E0913502E150E730A8F4F0E08827CA
:1004F000E358FD4F8F4F0C94060584029C02A00226
:10050000A402A802AC02B00282E0890F809301022B
:1005100082E0809335029F3F19F481E08093350299
:10052000FF91EF919F918F912F910F900BBE0F90A4
:100530000FBE0F901F9018959093340283E0E9CF7F
:100540009093320284E0E5CF9093300285E0E1CFD2
:1005500090932E0286E0DDCF90932C0287E0D9CFD6
:1005600090932A0288E0D5CF1F920F920FB60F9278
:1005700011240BB60F922F938F939F93EF93FF93BA
:100580009091C6009E3F19F52091000280912702AC
:1005900028131BC08091260280932502809124029B
:1005A0008093230280912202809321028091200275
:1005B00080931F0280911E0280931D0280911C0275
:1005C00080931B0281E080931A0210922702E0912F
:1005D0002702E150E730A8F4F0E08827ED50FD4F06
:1005E0008F4F0C940605FA02120316031A031E031A
:1005F0002203260382E0890F8093000282E0809329
:1006000027029F3F19F481E080932702FF91EF9129
:100610009F918F912F910F900BBE0F900FBE0F9057
:100620001F9018959093260283E0E9CF90932402BF
:1006300084E0E5CF9093220285E0E1CF9093200201
:1006400086E0DDCF90931E0287E0D9CF90931C0205
:1006500088E0D5CF1F920F920FB60F9211248F937F
:100660009F93AF93BF938091160290911702A09130
:100670001802B09119020196A11DB11D80931602B6
:1006800090931702A0931802B0931902BF91AF91F3
:100690009F918F910F900FBE0F901F901895CF9341
:1006A000DF93CDB7DEB76C970FB6F894DEBF0FBE01
:1006B000CDBF28E12093D10096E09093D20049E18C
:1006C00050E05093D5004093D4008091D1008068D1
:1006D0008093D1002093C1009093C20088E090E005
:1006E0009093C5008093C4008091C100806880937E
:1006F000C1001092200188E0809321011092250111
:10070000109224018FE79EE39093290180932801A2
:1007100080917300826080937300809121018160D9
:1007200080932101789487E080937A0080E480931D
:100730007C0010927B0080917A00806880937A0020
:1007400080910A01846080930A0180910A01886087
:1007500080930A01209A219A229A239A0E94DA0011
:1007600080910B01877F80930B01289A299A2A9AFE
:100770002B9A8FE59AEE0197F1F700C000002898B8
:10078000299800C00E94D40092E09A95F1F700C029
:100790000E94DA00EFE0F0E43197F1F700C00000CA
:1007A0000E94D400F2E0FA95F1F700C00E94DA004E
:1007B0008FE891E00197F1F700C000000E94D4009B
:1007C00092E09A95F1F700C00E94DA00E5EDEA9513
:1007D000F1F700002B9800C00E94D400F2E0FA95D7
:1007E000F1F700C00E94DA0025ED2A95F1F700002C
:1007F0002B9800C00E94D40082E08A95F1F700C0D7
:100800000E94DA0092E09A95F1F700C0289A00C0A1
:100810000E94D400E2E0EA95F1F700C00E94DA00FD
:10082000F5EDFA95F1F7000060E088E00E94F6002F
:1008300060E081E00E94F60060E086E00E94F60041
:1008400060E08CE00E94F6001AB8589A1A8E198E51
:10085000312C212C6101032C000CEE08FF0805E06F
:1008600010E080913602882399F0F894809141023B
:1008700090913F0290913D0290913B0290913902FC
:10088000909137027894E98DFA8D80831092360228
:100890008FB7F8948090160290901702A0901802DB
:1008A000B09019028FBF60E082E00E94F600F10173
:1008B000CF0101969C8F8B8F8081811186C0FF9222
:1008C000EF92DF92CF92E4E0F2E0FF93EF9381E0CA
:1008D00090E08C0F9D1F9F938F930E940E05FE0149
:1008E00031960FB6F894DEBF0FBECDBF8191811156
:1008F00072C0D501C40184199509A609B7098436C7
:100900009105A105B10508F4ACCF80917B0088600A
:1009100080937B0080917C00807E876080937C0048
:1009200080917A00806480937A0080917A0086FDBD
:10093000FCCF8091780090917900B8010E94F20478
:100940009B012C5C310937FF03C03195219531099A
:1009500080917B00877F80937B0080917C00807EEC
:1009600080937C0080917A00806480937A008091EB
:100970007A0086FDFCCF8091780090917900B801D3
:100980000E94F2046C5C710977FF03C07195619558
:1009900071096F3F710519F014F06FEF70E07F93EC
:1009A0006F932F3F310519F014F02FEF30E03F9394
:1009B0002F9382E08F930E94E0000F900F900F9092
:1009C0000F900F90240135014CCF61E00E94F6009A
:1009D000EB8DFC8D6DCF9091C00095FFFCCF809387
:1009E000C60084CFAA1BBB1B51E107C0AA1FBB1FB7
:1009F000A617B70710F0A61BB70B881F991F5A95AB
:100A0000A9F780959095BC01CD010895EE0FFF1FC9
:100A1000881F8BBF0790F691E02D19940F931F93B9
:100A2000CF93DF93CDB7DEB72E970FB6F894DEBF26
:100A30000FBECDBF0E891F8986E08C831A83098380
:100A40008FEF9FE79E838D83AE01465E5F4F688D7B
:100A5000798DCE0101960E943E052F813885020FC7
:100A6000131FF80110822E960FB6F894DEBF0FBE4A
:100A7000CDBFDF91CF911F910F9108952F923F929B
:100A80004F925F926F927F928F929F92AF92BF929E
:100A9000CF92DF92EF92FF920F931F93CF93DF934A
:100AA00000D000D000D01F921F92CDB7DEB77C01DE
:100AB0003B018A01FC0117821682838181FFDDC11F
:100AC000CE0101965C01F7019381F30193FD8591BD
:100AD00093FF81913F01882309F453C1853239F492
:100AE00093FD859193FF81913F01853229F4B701F0
:100AF00090E00E945607E7CF912C212C312CFFE18A
:100B0000F31538F08B3211F190F4803209F1833211
:100B100029F137FC3CC020ED280F2A3050F536FE75
:100B200020C08AE0989E200D1124922E06C08D329E
:100B300091F0803371F7689430F8F30193FD85915B
:100B400093FF81913F018111DACF21C0689431F880
:100B5000689432F8F2CF689433F8EFCF689434F8A1
:100B6000ECCFEAE02E9E200D1124222E689435F859
:100B7000E4CF8E3229F436FC04C1689436F8DDCF18
:100B80008C3619F4689437F8D8CF8836B1F2982F9C
:100B90009F7D95549330E0F08336A1F18337C1F106
:100BA000833509F063C02801F2E04F0E511CF801B3
:100BB000C080D180692D70E036FC02C06FEF7FEFFE
:100BC000C6010E9440074C01689437F882010AC0B0
:100BD0000C5F1F4FFFE3F98388248394912C6501F8
:100BE000E89437F833FE2DC0522C8114910471F52E
:100BF000552009F468CFB70180E290E00E945607C3
:100C00005A94F6CFF801808189830E5F1F4FE4CF9D
:100C10002801F2E04F0E511CF801C080D180692DEF
:100C200070E036FC02C06FEF7FEFC6010E944B07F9
:100C30004C018201D5CFB70180E290E00E945607B7
:100C40002A942814190409F0B0F7CECFF60137FC26
:100C5000859137FE81916F01B70190E00E945607A0
:100C600051105A94F1E08F1A9108BFCF843619F0D1
:100C7000893609F077C0F80137FE6BC06081718159
:100C8000828193810C5F1F4FF32DFF763F2E97FFDC
:100C900009C090958095709561957F4F8F4F9F4FBC
:100CA000689437F82AE030E0A5010E948607C82E34
:100CB000CA188C2C432C36FE0CC0E89440F8C9149A
:100CC00040F434FE05C032FC03C0F32DFE7E4F2EEF
:100CD000892C44FEAAC0FE01EC0DF11D80818033F9
:100CE00009F09CC0242D297E422E842D8870582E18
:100CF00043FCAAC040FEA4C09C2C821418F42C0C07
:100D0000922C981844FEA6C0B70180E390E00E94A0
:100D1000560742FE09C088E790E041FE02C088E520
:100D200090E0B7010E945607C91408F49FC0CA9406
:100D3000D12C9FEFC91AD90ACA0CDB1CF60182918B
:100D40006F01B70190E00E945607AC14BD04B1F7E3
:100D50004FCF60817181072E000C880B990B0E5FBD
:100D60001F4F92CFD32CE894D4F82AE030E0853797
:100D7000E1F1232D297FD22E8F36A9F1F0F48835A9
:100D800051F1F701868197812B960FB6F894DEBF5B
:100D90000FBECDBFDF91CF911F910F91FF90EF90CC
:100DA000DF90CF90BF90AF909F908F907F906F908B
:100DB0005F904F903F902F900895803749F088378B
:100DC00001F7D4FE02C06894D2F820E130E00DC0F3
:100DD0006894D4F8F6CF34FE03C0822F8660D82EF4
:100DE00020E132E002C028E030E0F801D7FE0FC079
:100DF00060817181828193810C5F1F4FA5010E94E8
:100E00008607C82ECA183D2CE89437F852CF608167
:100E1000718190E080E00E5F1F4FF0CF42FC02C076
:100E2000839463CF8394839460CF842D867809F470
:100E30005CCFF6CFB70180E290E00E945607839422
:100E40008214C0F3512C5ECF522C5818821408F42F
:100E500059CFF8CF842D867809F466CF8BE241FE16
:100E600080E247FC8DE2B70190E05CCFB70180E300
:100E700090E00E9456079A9457CF8FEF9FEF84CF50
:100E8000FC010590615070400110D8F78095909555
:100E90008E0F9F1F0895FC0161507040019001105A
:100EA000D8F7809590958E0F9F1F08950F931F93ED
:100EB000CF93DF93182F092FEB018B8181FD09C0A0
:100EC0001FEF0FEF812F902FDF91CF911F910F9187
:100ED000089582FF14C02E813F818C819D81281747
:100EE00039073CF4E881F981CF0101969983888321
:100EF00010838E819F8101969F838E83E3CFE88547
:100F0000F985812F1995892BA1F3DACFFA01AA2748
:100F1000283051F1203181F1E8946F936E7F6E5F3C
:100F20007F4F8F4F9F4FAF4FB1E03ED0B4E03CD0EA
:100F3000670F781F891F9A1FA11D680F791F8A1FCD
:100F4000911DA11D6A0F711D811D911DA11D20D034
:100F500009F468943F912AE0269F11243019305DEE
:100F60003193DEF6CF010895462F4770405D4193DF
:100F7000B3E00FD0C9F7F6CF462F4F70405D4A332C
:100F800018F0495D31FD4052419302D0A9F7EACFF4
:100F9000B4E0A6959795879577956795BA95C9F723
:100FA00000976105710508959B01AC010A2E069416
:100FB0005795479537952795BA95C9F7620F731FCF
:0C0FC000841F951FA01D0895F894FFCF1A
:100FCC0006060606426174746572793A20253375FB
:060FDC002525200A00009B
:00000001FF
