:100000000C94AA000C9455030C94AF030C94CB00F1
:100010000C94CB000C94CB000C94CB000C94CB0034
:100020000C94CB000C94CB000C94CB000C94CB0024
:100030000C94CB000C94CB000C94CB000C94CB0014
:100040000C94CB000C94CB000C94CB000C94CB0004
:100050000C94CB000C94CB000C94CB000C94CB00F4
:100060000C94CB000C94BA020C94CB000C94CB00F3
:100070000C94CB000C94CB000C94CB000C94CB00D4
:100080000C94CB000C94CB000C94CB000C94CB00C4
:100090000C9444020C94CB000C94CB000C94CB0039
:1000A0000C94CB000C94CB000C94CB000C94CB00A4
:1000B0000C94CB000C94CB000C94CB000C9430032C
:1000C0000C94CB000C94CB000C94CB000C94CE0180
:1000D0000C94CB000C94CB000C9458010C94CB00E6
:1000E0000C94CB000C9440020C94B6020C942003A8
:1000F0000C94A2020C9424030C9434020C942C0350
:100100000C94A6020C94BA010C9400030C94C20146
:100110000C94CA010C948A020C942C020C94C60113
:100120000C9418030C9414020C9430020C941C03CD
:100130000C9428030C94AE020C943C020C94BE0167
:100140000C94B6010C9438020C94AA020C949E01F3
:100150000C94B20211241FBECFEFD1E2DEBFCDBF9F
:1001600000E00CBF12E0A0E0B2E0E0E9F2E100E064
:100170000BBF02C007900D92A035B107D9F722E05E
:10018000A0E5B2E001C01D92A639B207E1F70E94D6
:1001900003040C9446090C9400009091D00095FF44
:1001A000FCCF8093D6000895EBE0F1E0808184607D
:1001B00080830895EBE0F1E080818B7F8083089558
:1001C000CF93DF93CDB7DEB78FEF0E94CD0084E0F1
:1001D0000E94CD008F810E94CD0089850E94CD00B4
:1001E0008B850E94CD008D850E94CD008EEF0E94F0
:1001F000CD00DF91CF910895CF93DF93C82FD62FF5
:1002000080910B016623F1F1886080930B01C7FF99
:100210003BC0289AC6FF3AC0299AC5FF39C02A9A1E
:10022000C4FF38C02B9A00C00E94D40082E08A9597
:10023000F1F700C00E94DA00C3FF2EC0289AC2FF67
:100240002DC0299AC1FF2CC02A9AC0FF2BC02B9A1F
:1002500000C00E94D40092E09A95F1F700C00E947D
:10026000DA00289A299A2A9A2B9AD1111DC0C430F3
:10027000D8F48FE999E10197F1F700C00000DF9110
:10028000CF910895877FC1CF2898C4CF2998C5CF33
:100290002A98C6CF2B98C7CF2898D1CF2998D2CFEC
:1002A0002A98D3CF2B98D4CF95ED9A95F1F7E6CF36
:1002B0001F920F920FB60F9211240BB60F922F932D
:1002C0008F939F93EF93FF93909136019E3F19F583
:1002D000209103028091950228131BC08091940203
:1002E0008093930280919202809391028091900278
:1002F00080938F0280918E0280938D0280918C0278
:1003000080938B0280918A028093890281E080939E
:10031000880210929502E0919502E150E730A8F42E
:10032000F0E08827E956FE4F8F4F0C9461069E013E
:10033000B601BA01BE01C201C601CA0182E0890F3D
:100340008093030282E0809395029F3F19F481E03D
:1003500080939502FF91EF919F918F912F910F9034
:100360000BBE0F900FBE0F901F90189590939402A4
:1003700083E0E9CF9093920284E0E5CF90939002DE
:1003800085E0E1CF90938E0286E0DDCF90938C02E2
:1003900087E0D9CF90938A0288E0D5CF1F920F9241
:1003A0000FB60F9211240BB60F922F938F939F933A
:1003B000EF93FF939091D6009E3F19F52091020292
:1003C0008091870228131BC080918602809385024A
:1003D00080918402809383028091820280938102C3
:1003E0008091800280937F0280917E0280937D02C3
:1003F00080917C0280937B0281E080937A0210924C
:100400008702E0918702E150E730A8F4F0E0882706
:10041000E35FFD4F8F4F0C94610614022C023002F3
:10042000340238023C02400282E0890F80930202CB
:1004300082E0809387029F3F19F481E080938702D6
:10044000FF91EF919F918F912F910F900BBE0F9085
:100450000FBE0F901F9018959093860283E0E9CF0E
:100460009093840284E0E5CF9093820285E0E1CF0F
:100470009093800286E0DDCF90937E0287E0D9CF13
:1004800090937C0288E0D5CF1F920F920FB60F9207
:1004900011240BB60F922F938F939F93EF93FF939B
:1004A0009091CE009E3F19F5209101028091790232
:1004B00028131BC080917802809377028091760286
:1004C000809375028091740280937302809172020E
:1004D000809371028091700280936F0280916E020E
:1004E00080936D0281E080936C0210927902E0911A
:1004F0007902E150E730A8F4F0E08827ED57FD4F8E
:100500008F4F0C9461068A02A202A602AA02AE02D2
:10051000B202B60282E0890F8093010282E08093EA
:1005200079029F3F19F481E080937902FF91EF9166
:100530009F918F912F910F900BBE0F900FBE0F9038
:100540001F9018959093780283E0E9CF90937602FC
:1005500084E0E5CF9093740285E0E1CF909372023E
:1005600086E0DDCF9093700287E0D9CF90936E0242
:1005700088E0D5CF1F920F920FB60F9211240BB6C1
:100580000F922F938F939F93EF93FF939091C600B9
:100590009E3F19F52091000280916B0228131BC029
:1005A00080916A0280936902809168028093670259
:1005B0008091660280936502809164028093630259
:1005C00080916202809361028091600280935F0259
:1005D00081E080935E0210926B02E0916B02E15029
:1005E000E730A8F4F0E08827E750FD4F8F4F0C94D8
:1005F0006106000318031C032003240328032C03B3
:1006000082E0890F8093000282E080936B029F3F1B
:1006100019F481E080936B02FF91EF919F918F918C
:100620002F910F900BBE0F900FBE0F901F9018953B
:1006300090936A0283E0E9CF9093680284E0E5CF6B
:100640009093660285E0E1CF9093640286E0DDCF6F
:100650009093620287E0D9CF9093600288E0D5CF73
:100660001F920F920FB60F9211248F939F93AF9307
:10067000BF9380915A0290915B02A0915C02B0916D
:100680005D020196A11DB11D80935A0290935B02F9
:10069000A0935C02B0935D02BF91AF919F918F9147
:1006A0000F900FBE0F901F9018951F920F920FB6CC
:1006B0000F9211240F931F932F933F934F935F93A8
:1006C0006F937F938F939F93AF93BF932FB7F894BC
:1006D00080915A0290915B02A0915C02B0915D0200
:1006E0002FBF40915602509157026091580270916D
:1006F00059028C019D01041B150B260B370BB90108
:10070000A801493C51056105710538F02091550259
:1007100021111CC021E02093550280935602909332
:100720005702A0935802B0935902BF91AF919F9185
:100730008F917F916F915F914F913F912F911F9179
:100740000F910F900FBE0F901F901895209155029A
:10075000213011F422E0DFCF10925502DECF1F923C
:100760000F920FB60F9211240F931F932F933F9365
:100770004F935F936F937F938F939F93AF93BF93A9
:100780002FB7F89480915A0290915B02A0915C027D
:10079000B0915D022FBF4091510250915202609181
:1007A0005302709154028C019D01041B150B260B02
:1007B000370BB901A801493C51056105710578F075
:1007C0002091500221111CC021E0209350028093FF
:1007D000510290935202A0935302B0935402BF91DE
:1007E000AF919F918F917F916F915F914F913F91C9
:1007F0002F911F910F910F900FBE0F901F90189582
:1008000010925002E4CFCF93DF93CDB7DEB7A99714
:100810000FB6F894DEBF0FBECDBF28E12093D10004
:1008200096E09093D20049E150E05093D500409378
:10083000D4008091D10080688093D1002093C100C2
:100840009093C20088E090E09093C5008093C4002C
:100850008091C10080688093C1001092200188E0DF
:100860008093210110922501109224018FE79EE3CD
:100870009093290180932801809173008260809376
:10088000730080912101816080932101789487E039
:1008900080937A0080E480937C0010927B008091AA
:1008A0007A00806880937A0080910A018460809346
:1008B0000A0180910A01886080930A01209A219A96
:1008C000229A239A0E94DA0080910B01877F8093FD
:1008D0000B01289A299A2A9A2B9A8FE59AEE01976A
:1008E000F1F700C000002898299800C00E94D400A9
:1008F00092E09A95F1F700C00E94DA00EFE0F0E490
:100900003197F1F700C000000E94D400F2E0FA95A0
:10091000F1F700C00E94DA008FE891E00197F1F74B
:1009200000C000000E94D40092E09A95F1F700C048
:100930000E94DA00E5EDEA95F1F700002B9800C07F
:100940000E94D400F2E0FA95F1F700C00E94DA00AC
:1009500025ED2A95F1F700002B9800C00E94D400E5
:1009600032E03A95F1F700C00E94DA0042E04A9581
:10097000F1F700C0289A00C00E94D40052E05A95B6
:10098000F1F700C00E94DA0085ED8A95F1F70000CA
:1009900060E088E00E94FC0060E081E00E94FC00D2
:1009A00060E086E00E94FC0060E08CE00E94FC00B9
:1009B0001AB8589A5198599A809169008860809322
:1009C0006900809169008B7F80936900E99A509853
:1009D000589A8091690082608093690080916900D3
:1009E0008E7F80936900E89A279A7894412C512C45
:1009F00032018E010F5F1F4F82E8882E912CFE017D
:100A000071961F0180917A02882369F1F894A09071
:100A10008502F0918302F9A7B090810280917F0254
:100A200080917D0280917B02789410927A021F92CD
:100A3000BF9224E6A29EC0011124B4010E944D067B
:100A40007F936F9344E052E05F934F931F930F9314
:100A50000E947006F8010FB6F894DEBF0FBECDBF3E
:100A600081918111F7C0809155026DE172E0882378
:100A700041F08091550262E272E0813011F067E24C
:100A800072E0C1010E9469068FB7F894C0905A02C3
:100A9000D0905B02E0905C02F0905D028FBF3F92CD
:100AA0002F9234E6A39EC0011124B4010E944D068A
:100AB0007F936F934EE252E05F934F931F930F9398
:100AC0000E94700660E082E00E94FC001CA30BA361
:100AD0000FB6F894DEBF0FBECDBF1AA309A3E9A1DC
:100AE000FAA18191FAA3E9A38111BBC01F92BF9221
:100AF0001F92F9A5FF932DE332E03F932F931F93AD
:100B00000F930E94700660E080EC0E94FC000FB61C
:100B1000F894DEBF0FBECDBFEBA1FCA18191FCA379
:100B2000EBA38111A2C08FB7F89440915A02509163
:100B30005B0260915C0270915D028FBFDB01CA01B4
:100B400084199509A609B70984369105A105B1054F
:100B500028F085B1805885B92A013B01D701C6012B
:100B60002DA13EA14FA158A5821B930BA40BB50B41
:100B700084369105A105B10508F444CF80917B002E
:100B8000886080937B0080917C00807E876080936A
:100B90007C0080917A00806480937A0080917A0052
:100BA00086FDFCCF809178009091790065E070E03F
:100BB0000E9439069B012C5C310937FF03C0319537
:100BC0002195310980917B00877F80937B00809104
:100BD0007C00807E80937C0080917A00806480938A
:100BE0007A0080917A0086FDFCCF80917800909108
:100BF000790050915502409150021F925F931F92CD
:100C00004F9365E070E00E9439066C5C710977FFD4
:100C100003C07195619571096F3F710519F014F06A
:100C20006FEF70E07F936F932F3F310519F014F051
:100C30002FEF30E03F932F9334E03F930E94E0008A
:100C40000FB6F894DEBF0FBECDBFCDA2DEA2EFA2DD
:100C5000F8A6D8CE9091C00095FFFCCF8093C60037
:100C6000FFCE61E00E94FC003ACF61E00E94FC00F0
:100C700053CFAA1BBB1B51E107C0AA1FBB1FA6175E
:100C8000B70710F0A61BB70B881F991F5A95A9F735
:100C900080959095BC01CD01089597FB072E16F421
:100CA000009407D077FD09D00E94390607FC05D0D3
:100CB0003EF4909581959F4F0895709561957F4F73
:100CC0000895EE0FFF1F881F8BBF0790F691E02D50
:100CD0001994FB01DC0101900D920020E1F70895C9
:100CE0000F931F93CF93DF93CDB7DEB72E970FB639
:100CF000F894DEBF0FBECDBF0E891F8986E08C83BE
:100D00001A8309838FEF9FE79E838D83AE01465E32
:100D10005F4F688D798DCE0101960E94A0062F81CC
:100D20003885020F131FF80110822E960FB6F89423
:100D3000DEBF0FBECDBFDF91CF911F910F91089500
:100D40002F923F924F925F926F927F928F929F92DB
:100D5000AF92BF92CF92DF92EF92FF920F931F93C9
:100D6000CF93DF9300D000D000D01F921F92CDB759
:100D7000DEB77C013B018A01FC0117821682838168
:100D800081FFDDC1CE0101965C01F7019381F30182
:100D900093FD859193FF81913F01882309F453C10D
:100DA000853239F493FD859193FF81913F0185321E
:100DB00029F4B70190E00E94B808E7CF912C212CCC
:100DC000312CFFE1F31538F08B3211F190F48032C1
:100DD00009F1833229F137FC3CC020ED280F2A307D
:100DE00050F536FE20C08AE0989E200D1124922EE8
:100DF00006C08D3291F0803371F7689430F8F301BA
:100E000093FD859193FF81913F018111DACF21C03C
:100E1000689431F8689432F8F2CF689433F8EFCFE1
:100E2000689434F8ECCFEAE02E9E200D1124222E97
:100E3000689435F8E4CF8E3229F436FC04C1689406
:100E400036F8DDCF8C3619F4689437F8D8CF883669
:100E5000B1F2982F9F7D95549330E0F08336A1F145
:100E60008337C1F1833509F063C02801F2E04F0EEA
:100E7000511CF801C080D180692D70E036FC02C0A1
:100E80006FEF7FEFC6010E94A2084C01689437F80B
:100E900082010AC00C5F1F4FFFE3F983882483940B
:100EA000912C6501E89437F833FE2DC0522C811443
:100EB000910471F5552009F468CFB70180E290E004
:100EC0000E94B8085A94F6CFF801808189830E5F9A
:100ED0001F4FE4CF2801F2E04F0E511CF801C080F3
:100EE000D180692D70E036FC02C06FEF7FEFC60144
:100EF0000E94AD084C018201D5CFB70180E290E09D
:100F00000E94B8082A942814190409F0B0F7CECF2B
:100F1000F60137FC859137FE81916F01B70190E0B2
:100F20000E94B80851105A94F1E08F1A9108BFCF6F
:100F3000843619F0893609F077C0F80137FE6BC0A6
:100F400060817181828193810C5F1F4FF32DFF7649
:100F50003F2E97FF09C090958095709561957F4FC2
:100F60008F4F9F4F689437F82AE030E0A5010E9428
:100F7000E808C82ECA188C2C432C36FE0CC0E89406
:100F800040F8C91440F434FE05C032FC03C0F32D10
:100F9000FE7E4F2E892C44FEAAC0FE01EC0DF11DF1
:100FA0008081803309F09CC0242D297E422E842D1F
:100FB0008870582E43FCAAC040FEA4C09C2C82140A
:100FC00018F42C0C922C981844FEA6C0B70180E3AC
:100FD00090E00E94B80842FE09C088E790E041FE18
:100FE00002C088E590E0B7010E94B808C91408F46F
:100FF0009FC0CA94D12C9FEFC91AD90ACA0CDB1C16
:10100000F60182916F01B70190E00E94B808AC141C
:10101000BD04B1F74FCF60817181072E000C880BA2
:10102000990B0E5F1F4F92CFD32CE894D4F82AE08F
:1010300030E08537E1F1232D297FD22E8F36A9F1BB
:10104000F0F4883551F1F701868197812B960FB620
:10105000F894DEBF0FBECDBFDF91CF911F910F91EE
:10106000FF90EF90DF90CF90BF90AF909F908F90C8
:101070007F906F905F904F903F902F9008958037B2
:1010800049F0883701F7D4FE02C06894D2F820E115
:1010900030E00DC06894D4F8F6CF34FE03C0822F40
:1010A0008660D82E20E132E002C028E030E0F8016E
:1010B000D7FE0FC060817181828193810C5F1F4FC9
:1010C000A5010E94E808C82ECA183D2CE89437F8FC
:1010D00052CF6081718190E080E00E5F1F4FF0CFB2
:1010E00042FC02C0839463CF8394839460CF842DA9
:1010F000867809F45CCFF6CFB70180E290E00E94D9
:10110000B80883948214C0F3512C5ECF522C581827
:10111000821408F459CFF8CF842D867809F466CF6D
:101120008BE241FE80E247FC8DE2B70190E05CCFAC
:10113000B70180E390E00E94B8089A9457CF8FEFF0
:101140009FEF84CFFC010590615070400110D8F7EB
:10115000809590958E0F9F1F0895FC0161507040FF
:1011600001900110D8F7809590958E0F9F1F0895DC
:101170000F931F93CF93DF93182F092FEB018B81D0
:1011800081FD09C01FEF0FEF812F902FDF91CF91CD
:101190001F910F91089582FF14C02E813F818C8191
:1011A0009D81281739073CF4E881F981CF01019628
:1011B0009983888310838E819F8101969F838E837C
:1011C000E3CFE885F985812F1995892BA1F3DACF33
:1011D000FA01AA27283051F1203181F1E8946F9368
:1011E0006E7F6E5F7F4F8F4F9F4FAF4FB1E03ED00E
:1011F000B4E03CD0670F781F891F9A1FA11D680FAC
:10120000791F8A1F911DA11D6A0F711D811D911DDE
:10121000A11D20D009F468943F912AE0269F112453
:101220003019305D3193DEF6CF010895462F4770B7
:10123000405D4193B3E00FD0C9F7F6CF462F4F7012
:10124000405D4A3318F0495D31FD4052419302D070
:10125000A9F7EACFB4E0A695979587957795679516
:10126000BA95C9F700976105710508959B01AC0116
:101270000A2E06945795479537952795BA95C9F73D
:10128000620F731F841F951FA01D0895F894FFCF50
:10129000060606065077723A25337525252020521A
:1012A000616E67653A253375636D200A0055736575
:1012B00072004175746F00426561636F6E00507714
:1012C000723A25337525252025732020004C445281
:1012D0003A25337520446973743A253375636D007C
:00000001FF
