:100000000C94AA000C94CB000C94CB000C94CB0065
:100010000C94CB000C94CB000C94CB000C94CB0034
:100020000C94CB000C94CB000C94CB000C94CB0024
:100030000C94CB000C94CB000C94CB000C94CB0014
:100040000C94CB000C94CB000C94CB000C94CB0004
:100050000C94CB000C94CB000C94CB000C94CB00F4
:100060000C94CB000C9426030C94CB000C94CB0086
:100070000C94CB000C94CB000C94CB000C94CB00D4
:100080000C94CB000C94CB000C94CB000C94CB00C4
:100090000C949F020C94CB000C94CB000C94CB00DE
:1000A0000C94CB000C94CB000C94CB000C94CB00A4
:1000B0000C94CB000C94CB000C94CB000C94AD03AF
:1000C0000C94CB000C94CB000C94CB000C94180235
:1000D0000C94CB000C94CB000C9491010C94CB00AD
:1000E0000C94CB000C94FC010C9402020C941C03A5
:1000F0000C94FE020C9404030C94A3030C948B0345
:100100000C949D030C9489020C9408020C949703A0
:100110000C9491030C9483020C9485030C94DB01E2
:100120000C94E9020C940E020C94F6010C947702E4
:100130000C948F020C9495020C94F0010C940A0319
:100140000C9410030C9462020C947D020C94160320
:100150000C94700311241FBECFEFD1E2DEBFCDBFE0
:1001600000E00CBF12E0A0E0B2E0E6E5FEE000E057
:100170000BBF02C007900D92A233B107D9F722E05E
:10018000A2E3B2E001C01D92AE36B207E1F70E94D1
:10019000D2030C9429070C9400009091D00095FF95
:1001A000FCCF8093D6000895809160020895E1ED20
:1001B000F0E088E1808386E08093D20089E190E0DE
:1001C0009093D5008093D4008081806880830895C7
:1001D000FC0107C09091C00095FFFCCF8093C60042
:1001E000319680818111F6CF0895E1ECF0E088E14D
:1001F000808386E08093C20088E090E09093C50001
:100200008093C40080818068808308952FB7F8941C
:1002100060913302709134028091350290913602E0
:100220002FBF089510922001E1E2F1E088E0808381
:1002300010922501109224018FE79EE390932901EB
:1002400080932801A3E7B0E08C9182608C93808139
:1002500081608083789408958830D0F4EBE7F0E0F3
:100260009081977F9083ECE7F0E09081907E87709B
:10027000892B8083EAE7F0E080818064808380912D
:100280007A0086FDFCCF80917800909179000895E6
:1002900098EF980F983070F7EBE7F0E09081986056
:1002A0009083ECE7F0E09081907E8770892B8083CB
:1002B000E1CFEAE7F0E087E0808380E480937C0090
:1002C00010927B0080818068808308950F931F9334
:1002D000CF93DF931F921F92CDB7DEB7FE013A9600
:1002E0000191FA83E9838FEF0E94CD00802F0E9455
:1002F000CD0010E00AC0E981FA81CF0102969A830D
:10030000898380810E94CD001F5F1017A0F38EEFBC
:100310000E94CD000F900F90DF91CF911F910F9110
:1003200008951F920F920FB60F9211240BB60F92E1
:100330002F938F939F93EF93FF93209136012E3F3E
:10034000A9F090916D02EFEFE90FE73008F03AC0A5
:10035000F0E08827E155FE4F8F4F0C944B04DB01F2
:10036000F001F601FC01020208020E0290916D02FA
:1003700080910302981719F010926D02E2CF8091DC
:100380006C0280936B0280916A0280936902809173
:100390006802809367028091660280936502809173
:1003A000640280936302809162028093610281E023
:1003B00080936002E1CF82E0820F809303029F5F0F
:1003C00090936D022F3F81F1FF91EF919F918F915B
:1003D0002F910F900BBE0F900FBE0F901F9018958E
:1003E00020936C029F5F90936D02ECCF20936A0282
:1003F0009F5F90936D02E6CF209368029F5F90937A
:100400006D02E0CF209366029F5F90936D02DACF7A
:10041000209364029F5F90936D02D4CF2093620279
:100420009F5F90936D02CECF81E080936D02CCCF21
:100430001F920F920FB60F9211240BB60F922F93AB
:100440008F939F93EF93FF932091D6002E3FA9F0B7
:1004500090915F02EFEFE90FE73008F03AC0F0E06B
:100460008827EA5CFD4F8F4F0C944B0462027702A1
:100470007D02830289028F02950290915F02809132
:100480000202981719F010925F02E2CF80915E028B
:1004900080935D0280915C0280935B0280915A029E
:1004A000809359028091580280935702809156029E
:1004B00080935502809154028093530281E080938F
:1004C0006002E1CF82E0820F809302029F5F9093EF
:1004D0005F022F3F81F1FF91EF919F918F912F91BB
:1004E0000F900BBE0F900FBE0F901F90189520938A
:1004F0005E029F5F90935F02ECCF20935C029F5F50
:1005000090935F02E6CF20935A029F5F90935F0221
:10051000E0CF209358029F5F90935F02DACF209341
:1005200056029F5F90935F02D4CF209354029F5F47
:1005300090935F02CECF81E080935F02CCCF1F9279
:100540000F920FB60F9211240BB60F922F938F9329
:100550009F93EF93FF932091CE002E3FA9F09091AF
:100560005202EFEFE90FE73008F03AC0F0E08827D9
:10057000E354FD4F8F4F0C944B04E902FE02040339
:100580000A03100316031C0390915202809101028A
:10059000981719F010925202E2CF80915102809385
:1005A000500280914F0280934E0280914D028093C1
:1005B0004C0280914B0280934A02809149028093C1
:1005C0004802809147028093460281E08093450271
:1005D000E1CF82E0820F809301029F5F90935202ED
:1005E0002F3F81F1FF91EF919F918F912F910F906C
:1005F0000BBE0F900FBE0F901F90189520935102C5
:100600009F5F90935202ECCF20934F029F5F909395
:100610005202E6CF20934D029F5F90935202E0CFAB
:1006200020934B029F5F90935202DACF20934902AE
:100630009F5F90935202D4CF209347029F5F909385
:100640005202CECF81E080935202CCCF1F920F9204
:100650000FB60F9211240BB60F922F938F939F9387
:10066000EF93FF932091C6002E3FA9F09091440292
:10067000EFEFE90FE73008F03AC0F0E08827EC5BD5
:10068000FC4F8F4F0C944B04700385038B03910335
:1006900097039D03A3039091440280910002981751
:1006A00019F010924402E2CF8091430280934202FB
:1006B000809141028093400280913F0280933E02EC
:1006C00080913D0280933C0280913B0280933A02EC
:1006D000809139028093380281E080933702E1CF24
:1006E00082E0820F809300029F5F909344022F3F2D
:1006F00081F1FF91EF919F918F912F910F900BBE00
:100700000F900FBE0F901F901895209343029F5F8C
:1007100090934402ECCF209341029F5F9093440258
:10072000E6CF20933F029F5F90934402E0CF209357
:100730003D029F5F90934402DACF20933B029F5F7C
:1007400090934402D4CF209339029F5F9093440248
:10075000CECF81E080934402CCCF1F920F920FB690
:100760000F9211248F939F93AF93BF938091330285
:1007700090913402A0913502B09136020196A11DEC
:10078000B11D8093330290933402A0933502B0934D
:100790003602BF91AF919F918F910F900FBE0F9036
:1007A0001F901895CF93DF93CDB7DEB7E0970FB6C4
:1007B000F894DEBF0FBECDBF0E94D7000E94F500A7
:1007C0000E9412010E9459010E94D4000E94060159
:1007D0006B017C01DC01CB0188199909AA09BB09CD
:1007E00084369105A105B10578F380E00E942C01C3
:1007F00096958795969587952C0181E00E942C010E
:1008000096958795969587954C011F921F925F92BA
:100810004F9284E092E09F938F938E010F5F1F4F62
:100820001F930F930E9453041F921F929F928F92C7
:100830008AE192E09F938F935E0129E1A20EB11CA1
:10084000BF92AF920E945304C8010E94E80080E367
:1008500092E00E94E800C5010E94E80080E392E077
:100860000E94E800BF92AF921F930F9382E08F9394
:100870000E9466018FEF93ED20E38150904020406D
:10088000E1F700C00000460157010FB6F894DEBF43
:100890000FBECDBF99CFEE0FFF1F881F8BBF0790F4
:1008A000F691E02D19940F931F93CF93DF93CDB75B
:1008B000DEB72E970FB6F894DEBF0FBECDBF0E8900
:1008C0001F8986E08C831A8309838FEF9FE79E83BD
:1008D0008D83AE01465E5F4F688D798DCE010196A6
:1008E0000E9483042F813885020F131FF8011082A4
:1008F0002E960FB6F894DEBF0FBECDBFDF91CF911D
:100900001F910F9108952F923F924F925F926F9295
:100910007F928F929F92AF92BF92CF92DF92EF928F
:10092000FF920F931F93CF93DF9300D000D000D09E
:100930001F921F92CDB7DEB77C013B018A01FC01FB
:1009400017821682838181FFDDC1CE0101965C0191
:10095000F7019381F30193FD859193FF81913F010D
:10096000882309F453C1853239F493FD859193FFAF
:1009700081913F01853229F4B70190E00E949B06E6
:10098000E7CF912C212C312CFFE1F31538F08B327D
:1009900011F190F4803209F1833229F137FC3CC027
:1009A00020ED280F2A3050F536FE20C08AE0989EB0
:1009B000200D1124922E06C08D3291F0803371F7F4
:1009C000689430F8F30193FD859193FF81913F0185
:1009D0008111DACF21C0689431F8689432F8F2CFEF
:1009E000689433F8EFCF689434F8ECCFEAE02E9EA9
:1009F000200D1124222E689435F8E4CF8E3229F48C
:100A000036FC04C1689436F8DDCF8C3619F468944E
:100A100037F8D8CF8836B1F2982F9F7D9554933010
:100A2000E0F08336A1F18337C1F1833509F063C06B
:100A30002801F2E04F0E511CF801C080D180692DD1
:100A400070E036FC02C06FEF7FEFC6010E948506A2
:100A50004C01689437F882010AC00C5F1F4FFFE316
:100A6000F98388248394912C6501E89437F833FE48
:100A70002DC0522C8114910471F5552009F468CFD2
:100A8000B70180E290E00E949B065A94F6CFF801ED
:100A9000808189830E5F1F4FE4CF2801F2E04F0E63
:100AA000511CF801C080D180692D70E036FC02C075
:100AB0006FEF7FEFC6010E9490064C018201D5CFF7
:100AC000B70180E290E00E949B062A942814190442
:100AD00009F0B0F7CECFF60137FC859137FE819152
:100AE0006F01B70190E00E949B0651105A94F1E00B
:100AF0008F1A9108BFCF843619F0893609F077C074
:100B0000F80137FE6BC060817181828193810C5F37
:100B10001F4FF32DFF763F2E97FF09C090958095CC
:100B2000709561957F4F8F4F9F4F689437F82AE0FB
:100B300030E0A5010E94CB06C82ECA188C2C432C8D
:100B400036FE0CC0E89440F8C91440F434FE05C0E9
:100B500032FC03C0F32DFE7E4F2E892C44FEAAC02A
:100B6000FE01EC0DF11D8081803309F09CC0242D25
:100B7000297E422E842D8870582E43FCAAC040FE48
:100B8000A4C09C2C821418F42C0C922C981844FEAF
:100B9000A6C0B70180E390E00E949B0642FE09C018
:100BA00088E790E041FE02C088E590E0B7010E942E
:100BB0009B06C91408F49FC0CA94D12C9FEFC91A90
:100BC000D90ACA0CDB1CF60182916F01B70190E0D3
:100BD0000E949B06AC14BD04B1F74FCF60817181B8
:100BE000072E000C880B990B0E5F1F4F92CFD32C52
:100BF000E894D4F82AE030E08537E1F1232D297F0D
:100C0000D22E8F36A9F1F0F4883551F1F7018681A3
:100C100097812B960FB6F894DEBF0FBECDBFDF9144
:100C2000CF911F910F91FF90EF90DF90CF90BF90E9
:100C3000AF909F908F907F906F905F904F903F907C
:100C40002F900895803749F0883701F7D4FE02C00D
:100C50006894D2F820E130E00DC06894D4F8F6CF63
:100C600034FE03C0822F8660D82E20E132E002C01D
:100C700028E030E0F801D7FE0FC0608171818281E9
:100C800093810C5F1F4FA5010E94CB06C82ECA1886
:100C90003D2CE89437F852CF6081718190E080E07C
:100CA0000E5F1F4FF0CF42FC02C0839463CF83944A
:100CB000839460CF842D867809F45CCFF6CFB7019A
:100CC00080E290E00E949B0683948214C0F3512C32
:100CD0005ECF522C5818821408F459CFF8CF842DC7
:100CE000867809F466CF8BE241FE80E247FC8DE214
:100CF000B70190E05CCFB70180E390E00E949B06D3
:100D00009A9457CF8FEF9FEF84CFFC0105906150ED
:100D100070400110D8F7809590958E0F9F1F089511
:100D2000FC016150704001900110D8F780959095BA
:100D30008E0F9F1F08950F931F93CF93DF93182F4C
:100D4000092FEB018B8181FD09C01FEF0FEF812F70
:100D5000902FDF91CF911F910F91089582FF14C0C2
:100D60002E813F818C819D81281739073CF4E881D1
:100D7000F981CF0101969983888310838E819F81A9
:100D800001969F838E83E3CFE885F985812F19959E
:100D9000892BA1F3DACFFA01AA27283051F12031AB
:100DA00081F1E8946F936E7F6E5F7F4F8F4F9F4FFF
:100DB000AF4FB1E03ED0B4E03CD0670F781F891F41
:100DC0009A1FA11D680F791F8A1F911DA11D6A0F0F
:100DD000711D811D911DA11D20D009F468943F91C2
:100DE0002AE0269F11243019305D3193DEF6CF01C1
:100DF0000895462F4770405D4193B3E00FD0C9F787
:100E0000F6CF462F4F70405D4A3318F0495D31FDF3
:100E10004052419302D0A9F7EACFB4E0A695979546
:100E2000879577956795BA95C9F70097610571051C
:100E300008959B01AC010A2E069457954795379566
:100E40002795BA95C9F7620F731F841F951FA01DC0
:060E50000895F894FFCFA5
:100E5600060606064A6F79737469636B203120565D
:100E6600616C75653A20256C75004A6F79737469F3
:100E7600636B20322056616C75653A20256C7500CF
:020E86000A0060
:00000001FF
