:100000000C94AA000C9461030C94BB030C94CB00D9
:100010000C94CB000C94CB000C94CB000C94CB0034
:100020000C94CB000C94CB000C94CB000C94CB0024
:100030000C94CB000C94CB000C94CB000C94CB0014
:100040000C94CB000C94CB000C94CB000C94CB0004
:100050000C94CB000C94CB000C94CB000C94CB00F4
:100060000C94CB000C94C6020C94CB000C94CB00E7
:100070000C94CB000C94CB000C94CB000C94CB00D4
:100080000C94CB000C94CB000C94CB000C94CB00C4
:100090000C9450020C94CB000C94CB000C94CB002D
:1000A0000C94CB000C94CB000C94CB000C94CB00A4
:1000B0000C94CB000C94CB000C94CB000C943C0320
:1000C0000C94CB000C94CB000C94CB000C94DA0174
:1000D0000C94CB000C94CB000C9464010C94CB00DA
:1000E0000C94CB000C9440020C940C030C94D201A1
:1000F0000C94B6020C944C020C94BE020C94240393
:100100000C94BA020C94CE010C942C030C9448026B
:100110000C94C2010C9420020C94CA010C94C601E8
:100120000C9430030C9434030C9444020C94280374
:100130000C94D6010C9496020C94AE020C943C02E2
:100140000C9438020C94C2020C9438030C94AA014B
:100150000C94B20211241FBECFEFD1E2DEBFCDBF9F
:1001600000E00CBF12E0A0E0B2E0E2E4F2E100E067
:100170000BBF02C007900D92A835B107D9F722E056
:10018000A8E5B2E001C01D92AE39B207E1F70E94C6
:1001900025040C941F090C9400009091D00095FF49
:1001A000FCCF8093D6000895FC019191911101C07C
:1001B00008958091C00085FFFCCF9093C600F5CFD5
:1001C000EBE0F1E08081846080830895EBE0F1E072
:1001D00080818B7F80830895CF93DF93CDB7DEB787
:1001E0008FEF0E94CD0084E00E94CD008F810E949D
:1001F000CD0089850E94CD008B850E94CD008D8524
:100200000E94CD008EEF0E94CD00DF91CF91089526
:10021000CF93DF93C82FD62F80910B016623F1F186
:10022000886080930B01C7FF3BC0289AC6FF3AC085
:10023000299AC5FF39C02A9AC4FF38C02B9A00C03A
:100240000E94E00082E08A95F1F700C00E94E6007B
:10025000C3FF2EC0289AC2FF2DC0299AC1FF2CC00F
:100260002A9AC0FF2BC02B9A00C00E94E00092E0A7
:100270009A95F1F700C00E94E600289A299A2A9AD6
:100280002B9AD1111DC0C430D8F48FE999E10197A0
:10029000F1F700C00000DF91CF910895877FC1CFB3
:1002A0002898C4CF2998C5CF2A98C6CF2B98C7CFF6
:1002B0002898D1CF2998D2CF2A98D3CF2B98D4CFB2
:1002C00095ED9A95F1F7E6CF1F920F920FB60F9228
:1002D00011240BB60F922F938F939F93EF93FF935D
:1002E000909136019E3F19F52091030280919D0265
:1002F00028131BC080919C0280939B0280919A02DC
:10030000809399028091980280939702809196023F
:10031000809395028091940280939302809192023F
:100320008093910281E08093900210929D02E0916F
:100330009D02E150E730A8F4F0E08827ED55FE4F2C
:100340008F4F0C943A06AA01C201C601CA01CE0120
:10035000D201D60182E0890F8093030282E080936C
:100360009D029F3F19F481E080939D02FF91EF91E0
:100370009F918F912F910F900BBE0F900FBE0F90FA
:100380001F90189590939C0283E0E9CF90939A0276
:1003900084E0E5CF9093980285E0E1CF90939602B8
:1003A00086E0DDCF9093940287E0D9CF90939202BC
:1003B00088E0D5CF1F920F920FB60F9211240BB683
:1003C0000F922F938F939F93EF93FF939091D6006B
:1003D0009E3F19F52091020280918F0228131BC0C5
:1003E00080918E0280938D0280918C0280938B028B
:1003F00080918A028093890280918802809387028B
:10040000809186028093850280918402809383028A
:1004100081E08093820210928F02E0918F02E1507E
:10042000E730A8F4F0E08827E75EFD4F8F4F0C948B
:100430003A06200238023C024002440248024C02C2
:1004400082E0890F8093020282E080938F029F3FB7
:1004500019F481E080938F02FF91EF919F918F912A
:100460002F910F900BBE0F900FBE0F901F901895FD
:1004700090938E0283E0E9CF90938C0284E0E5CFE5
:1004800090938A0285E0E1CF9093880286E0DDCFE9
:100490009093860287E0D9CF9093840288E0D5CFED
:1004A0001F920F920FB60F9211240BB60F922F933B
:1004B0008F939F93EF93FF939091CE009E3F19F5FA
:1004C000209101028091810228131BC0809180023B
:1004D00080937F0280917E0280937D0280917C02D6
:1004E00080937B0280917A028093790280917802D6
:1004F00080937702809176028093750281E08093E9
:10050000740210928102E0918102E150E730A8F478
:10051000F0E08827E157FD4F8F4F0C943A06960282
:10052000AE02B202B602BA02BE02C20282E0890F75
:100530008093010282E0809381029F3F19F481E061
:1005400080938102FF91EF919F918F912F910F9056
:100550000BBE0F900FBE0F901F90189590938002C6
:1005600083E0E9CF90937E0284E0E5CF90937C0214
:1005700085E0E1CF90937A0286E0DDCF9093780218
:1005800087E0D9CF9093760288E0D5CF1F920F9263
:100590000FB60F9211240BB60F922F938F939F9348
:1005A000EF93FF939091C6009E3F19F520910002B2
:1005B0008091730228131BC0809172028093710294
:1005C0008091700280936F0280916E0280936D0221
:1005D00080916C0280936B0280916A028093690221
:1005E000809168028093670281E080936602109296
:1005F0007302E0917302E150E730A8F4F0E088273D
:10060000EB5FFC4F8F4F0C943A060C032403280336
:100610002C0330033403380382E0890F80930002F7
:1006200082E0809373029F3F19F481E0809373020C
:10063000FF91EF919F918F912F910F900BBE0F9093
:100640000FBE0F901F9018959093720283E0E9CF30
:100650009093700284E0E5CF90936E0285E0E1CF45
:1006600090936C0286E0DDCF90936A0287E0D9CF49
:100670009093680288E0D5CF1F920F920FB60F9229
:1006800011248F939F93AF93BF93809162029091B7
:100690006302A0916402B09165020196A11DB11D93
:1006A0008093620290936302A0936402B093650208
:1006B000BF91AF919F918F910F900FBE0F901F90A0
:1006C00018951F920F920FB60F9211240F931F933C
:1006D0002F933F934F935F936F937F938F939F934A
:1006E000AF93BF932FB7F894809162029091630209
:1006F000A0916402B09165022FBF40915E025091BB
:100700005F0260916002709161028C019D01041B87
:10071000150B260B370BB901A801493C51056105A2
:10072000710538F020915D0221111CC021E0209359
:100730005D0280935E0290935F02A0936002B0938B
:100740006102BF91AF919F918F917F916F915F9166
:100750004F913F912F911F910F910F900FBE0F90CE
:100760001F90189520915D02213011F422E0DFCF17
:1007700010925D02DECF1F920F920FB60F921124DE
:100780000BB60F920F931F932F933F934F935F934B
:100790006F937F938F939F93AF93BF93EF93FF9349
:1007A0002FB7F8948091620290916302A091640245
:1007B000B09165022FBF4091590250915A02609149
:1007C0005B0270915C028C019D01041B150B260BD2
:1007D000370BB901A801493C51056105710598F035
:1007E00020915802211124C021E0209358028093C7
:1007F000590290935A02A0935B02B0935C0284E08A
:1008000092E00E94D400FF91EF91BF91AF919F9130
:100810008F917F916F915F914F913F912F911F9198
:100820000F910F900BBE0F900FBE0F901F90189559
:10083000109258028093590290935A02A0935B023F
:10084000B0935C0284E192E0DCCFCF93DF93CDB72D
:10085000DEB7A5970FB6F894DEBF0FBECDBF28E177
:100860002093D10096E09093D20049E150E050935C
:10087000D5004093D4008091D10080688093D1004E
:100880002093C1009093C20088E090E09093C5004F
:100890008093C4008091C10080688093C100109251
:1008A000200188E0809321011092250110922401FB
:1008B0008FE79EE390932901809328018091730034
:1008C0008260809373008091210181608093210177
:1008D000789487E080937A0080E480937C00109283
:1008E0007B0080917A00806880937A0080910A0171
:1008F000846080930A0180910A01886080930A01D4
:10090000209A219A229A239A0E94E60080910B0154
:10091000877F80930B01289A299A2A9A2B9A8FE530
:100920009AEE0197F1F700C000002898299800C0BE
:100930000E94E00092E09A95F1F700C00E94E60064
:10094000EFE0F0E43197F1F700C000000E94E00012
:10095000F2E0FA95F1F700C00E94E6008FE891E01E
:100960000197F1F700C000000E94E00092E09A9524
:10097000F1F700C00E94E600E5EDEA95F1F700000E
:100980002B9800C00E94E000F2E0FA95F1F700C059
:100990000E94E60025ED2A95F1F700002B9800C093
:1009A0000E94E00082E08A95F1F700C00E94E60014
:1009B00092E09A95F1F700C0289A00C00E94E000EA
:1009C000E2E0EA95F1F700C00E94E600F5EDFA9545
:1009D000F1F7000060E088E00E94080160E081E03B
:1009E0000E94080160E086E00E94080160E08CE05F
:1009F0000E9408011AB8589A5198599A8091690032
:100A0000886080936900809169008B7F8093690082
:100A1000E99A5098589A80916900826080936900A1
:100A2000809169008E7F80936900E89A78948E01A6
:100A30000F5E1F4FCE0101967C0185E0C82ED12CA0
:100A400080918202882389F0F89430908D029091F1
:100A50008B029DA32090890280918702809185025C
:100A60008091830278941092820280915D0265E207
:100A700072E0882341F080915D026AE272E0813089
:100A800011F06FE272E0C8010E9442068FB7F8943D
:100A90008090620290906302A0906402B090650220
:100AA0008FBF1F930F93E4E63E9EC001112466E7BB
:100AB00070E00E9426067F936F9386E392E09F93F7
:100AC0008F93FF92EF920E94490660E082E00E94BD
:100AD0000801FAA2E9A20FB6F894DEBF0FBECDBF9F
:100AE000FCA2EBA2EBA1FCA18191FCA3EBA38111E1
:100AF00091C01F922F921F92FDA1FF9385E492E077
:100B00009F938F93FF92EF920E94490660E080ECE2
:100B10000E9408010FB6F894DEBF0FBECDBFE9A159
:100B2000FAA18191FAA3E9A3811178C0D501C4018A
:100B300084199509A609B70984369105A105B1055F
:100B400008F47ECF80917B00886080937B00809149
:100B50007C00807E876080937C0080917A00806436
:100B600080937A0080917A0086FDFCCF8091780096
:100B700090917900B6010E9412069B012C5C31090C
:100B800037FF03C031952195310980917B00877F24
:100B900080937B0080917C00807E80937C0080919C
:100BA0007A00806480937A0080917A0086FDFCCF81
:100BB000809178009091790050915D0240915802A7
:100BC0001F925F931F924F93B6010E9412066C5CB6
:100BD000710977FF03C07195619571096F3F7105C8
:100BE00019F014F06FEF70E07F936F932F3F310592
:100BF00019F014F02FEF30E03F932F93F4E0FF93C0
:100C00000E94EC000FB6F894DEBF0FBECDBF2401EA
:100C1000350116CF61E00E94080164CF61E00E94B7
:100C200008017DCFAA1BBB1B51E107C0AA1FBB1F38
:100C3000A617B70710F0A61BB70B881F991F5A9568
:100C4000A9F780959095BC01CD01089597FB072EDB
:100C500016F4009407D077FD09D00E94120607FC15
:100C600005D03EF4909581959F4F089570956195BC
:100C70007F4F0895EE0FFF1F881F8BBF0790F691DF
:100C8000E02D1994FB01DC0101900D920020E1F7A9
:100C900008950F931F93CF93DF93CDB7DEB72E97B1
:100CA0000FB6F894DEBF0FBECDBF0E891F8986E058
:100CB0008C831A8309838FEF9FE79E838D83AE0118
:100CC000465E5F4F688D798DCE0101960E94790650
:100CD0002F813885020F131FF80110822E960FB650
:100CE000F894DEBF0FBECDBFDF91CF911F910F9162
:100CF00008952F923F924F925F926F927F928F92C0
:100D00009F92AF92BF92CF92DF92EF92FF920F939A
:100D10001F93CF93DF9300D000D000D01F921F927B
:100D2000CDB7DEB77C013B018A01FC011782168238
:100D3000838181FFDDC1CE0101965C01F7019381C2
:100D4000F30193FD859193FF81913F01882309F47D
:100D500053C1853239F493FD859193FF81913F0111
:100D6000853229F4B70190E00E949108E7CF912CD9
:100D7000212C312CFFE1F31538F08B3211F190F476
:100D8000803209F1833229F137FC3CC020ED280F75
:100D90002A3050F536FE20C08AE0989E200D11249E
:100DA000922E06C08D3291F0803371F7689430F83E
:100DB000F30193FD859193FF81913F018111DACF7A
:100DC00021C0689431F8689432F8F2CF689433F80F
:100DD000EFCF689434F8ECCFEAE02E9E200D11247A
:100DE000222E689435F8E4CF8E3229F436FC04C103
:100DF000689436F8DDCF8C3619F4689437F8D8CF7C
:100E00008836B1F2982F9F7D95549330E0F0833669
:100E1000A1F18337C1F1833509F063C02801F2E005
:100E20004F0E511CF801C080D180692D70E036FC56
:100E300002C06FEF7FEFC6010E947B084C016894EF
:100E400037F882010AC00C5F1F4FFFE3F983882443
:100E50008394912C6501E89437F833FE2DC0522C11
:100E60008114910471F5552009F468CFB70180E22F
:100E700090E00E9491085A94F6CFF801808189830E
:100E80000E5F1F4FE4CF2801F2E04F0E511CF80116
:100E9000C080D180692D70E036FC02C06FEF7FEF1B
:100EA000C6010E9486084C018201D5CFB70180E2BD
:100EB00090E00E9491082A942814190409F0B0F7D0
:100EC000CECFF60137FC859137FE81916F01B701D6
:100ED00090E00E94910851105A94F1E08F1A910805
:100EE000BFCF843619F0893609F077C0F80137FE94
:100EF0006BC060817181828193810C5F1F4FF32DE4
:100F0000FF763F2E97FF09C090958095709561956B
:100F10007F4F8F4F9F4F689437F82AE030E0A5014C
:100F20000E94C108C82ECA188C2C432C36FE0CC057
:100F3000E89440F8C91440F434FE05C032FC03C004
:100F4000F32DFE7E4F2E892C44FEAAC0FE01EC0D2F
:100F5000F11D8081803309F09CC0242D297E422E12
:100F6000842D8870582E43FCAAC040FEA4C09C2C3F
:100F7000821418F42C0C922C981844FEA6C0B701C9
:100F800080E390E00E94910842FE09C088E790E06B
:100F900041FE02C088E590E0B7010E949108C914A3
:100FA00008F49FC0CA94D12C9FEFC91AD90ACA0C61
:100FB000DB1CF60182916F01B70190E00E9491085D
:100FC000AC14BD04B1F74FCF60817181072E000CC6
:100FD000880B990B0E5F1F4F92CFD32CE894D4F857
:100FE0002AE030E08537E1F1232D297FD22E8F369C
:100FF000A9F1F0F4883551F1F701868197812B969C
:101000000FB6F894DEBF0FBECDBFDF91CF911F9119
:101010000F91FF90EF90DF90CF90BF90AF909F9097
:101020008F907F906F905F904F903F902F9008959A
:10103000803749F0883701F7D4FE02C06894D2F8AF
:1010400020E130E00DC06894D4F8F6CF34FE03C040
:10105000822F8660D82E20E132E002C028E030E006
:10106000F801D7FE0FC060817181828193810C5F8E
:101070001F4FA5010E94C108C82ECA183D2CE89434
:1010800037F852CF6081718190E080E00E5F1F4F92
:10109000F0CF42FC02C0839463CF8394839460CFEB
:1010A000842D867809F45CCFF6CFB70180E290E01A
:1010B0000E94910883948214C0F3512C5ECF522C6D
:1010C0005818821408F459CFF8CF842D867809F483
:1010D00066CF8BE241FE80E247FC8DE2B70190E0F3
:1010E0005CCFB70180E390E00E9491089A9457CFBB
:1010F0008FEF9FEF84CFFC0105906150704001108D
:10110000D8F7809590958E0F9F1F0895FC01615030
:10111000704001900110D8F7809590958E0F9F1F19
:1011200008950F931F93CF93DF93182F092FEB018F
:101130008B8181FD09C01FEF0FEF812F902FDF9171
:10114000CF911F910F91089582FF14C02E813F818E
:101150008C819D81281739073CF4E881F981CF0102
:1011600001969983888310838E819F8101969F8346
:101170008E83E3CFE885F985812F1995892BA1F31B
:10118000DACFFA01AA27283051F1203181F1E89411
:101190006F936E7F6E5F7F4F8F4F9F4FAF4FB1E06A
:1011A0003ED0B4E03CD0670F781F891F9A1FA11D65
:1011B000680F791F8A1F911DA11D6A0F711D811D66
:1011C000911DA11D20D009F468943F912AE0269F2B
:1011D00011243019305D3193DEF6CF010895462F8A
:1011E0004770405D4193B3E00FD0C9F7F6CF462F6B
:1011F0004F70405D4A3318F0495D31FD40524193D4
:1012000002D0A9F7EACFB4E0A69597958795779590
:101210006795BA95C9F700976105710508959B0117
:10122000AC010A2E06945795479537952795BA95A0
:10123000C9F7620F731F841F951FA01D0895F894AE
:02124000FFCFDE
:1012420006060606427574746F6E205072657373DB
:1012520065640A00427574746F6E2052656C656134
:101262007365640A0055736572004175746F0042BC
:101272006561636F6E005077723A253375252520BC
:1012820025732020004C44523A253375204469735B
:08129200743A253375636D0009
:00000001FF
