:100000000C94AA000C94CB000C94CB000C94CB0065
:100010000C94CB000C94CB000C94CB000C94CB0034
:100020000C94CB000C94CB000C94CB000C94CB0024
:100030000C94CB000C94CB000C94CB000C94CB0014
:100040000C94CB000C94CB000C94CB000C94CB0004
:100050000C94CB000C94CB000C94CB000C94CB00F4
:100060000C94CB000C9458020C94CB000C94CB0055
:100070000C94CB000C94CB000C94CB000C94CB00D4
:100080000C94CB000C94CB000C94CB000C94CB00C4
:100090000C94E2010C94CB000C94CB000C94CB009C
:1000A0000C94CB000C94CB000C94CB000C94CB00A4
:1000B0000C94CB000C94CB000C94CB000C94CE028F
:1000C0000C94CB000C94CB000C94CB000C946C01E2
:1000D0000C94CB000C94CB000C94F6000C94CB0049
:1000E0000C94CB000C944C020C94CE010C94D601D1
:1000F0000C9444020C9458010C9428020C94C202F3
:100100000C94C6020C9440020C9454010C94DE0131
:100110000C9448020C943C010C94CA010C94B2015A
:100120000C9450020C945C010C94CA020C9468016B
:100130000C94D2010C9464010C94DA010C949E028C
:100140000C94BA020C94BE020C9454020C94B602A5
:100150000C94600111241FBECFEFD1E2DEBFCDBFF2
:1001600000E00CBF12E0A0E0B2E0E8EDF3E100E057
:100170000BBF02C007900D92AC31B107D9F722E056
:10018000ACE1B2E001C01D92A835B207E1F70E94D0
:10019000F3020C94EA090C9400009091D00095FFB2
:1001A000FCCF8093D6000895FC019191911101C07C
:1001B00008958091C00085FFFCCF9093C600F5CFD5
:1001C000CF93DF93CDB7DEB78FEF0E94CD0082E0F3
:1001D0000E94CD008F810E94CD0089850E94CD00B4
:1001E0008EEF0E94CD00DF91CF9108951F920F9264
:1001F0000FB60F9211240BB60F922F938F939F93EC
:10020000EF93FF93909136019E3F19F520910302E1
:100210008091570228131BC080915602809355028B
:100220008091540280935302809152028093510234
:100230008091500280934F0280914E0280934D0234
:1002400080914C0280934B0281E080934A0210928D
:100250005702E0915702E150E730A8F4F0E0882718
:10026000EB5CFE4F8F4F0C94FD063C01540158018E
:100270005C0160016401680182E0890F80930302E0
:1002800082E0809357029F3F19F481E080935702E8
:10029000FF91EF919F918F912F910F900BBE0F9037
:1002A0000FBE0F901F9018959093560283E0E9CFF0
:1002B0009093540284E0E5CF9093520285E0E1CF21
:1002C0009093500286E0DDCF90934E0287E0D9CF25
:1002D00090934C0288E0D5CF1F920F920FB60F92E9
:1002E00011240BB60F922F938F939F93EF93FF934D
:1002F0009091D6009E3F19F520910202809149020B
:1003000028131BC0809148028093470280914602C7
:10031000809345028091440280934302809142027F
:10032000809341028091400280933F0280913E027F
:1003300080933D0281E080934A0210924902E0914D
:100340004902E150E730A8F4F0E08827E555FE4F78
:100350008F4F0C94FD06B201CA01CE01D201D60125
:10036000DA01DE0182E0890F8093020282E080934D
:1003700049029F3F19F481E080934902FF91EF9178
:100380009F918F912F910F900BBE0F900FBE0F90EA
:100390001F9018959093480283E0E9CF909346020E
:1003A00084E0E5CF9093440285E0E1CF9093420250
:1003B00086E0DDCF9093400287E0D9CF90933E0254
:1003C00088E0D5CF1F920F920FB60F9211240BB673
:1003D0000F922F938F939F93EF93FF939091CE0063
:1003E0009E3F19F52091010280913C0228131BC009
:1003F00080913B0280933A028091390280933802C7
:1004000080913702809336028091350280933402C6
:1004100080913302809332028091310280933002C6
:1004200081E080932F0210923C02E0913C02E15067
:10043000E730A8F4F0E08827EF5DFD4F8F4F0C9474
:10044000FD0628024002440248024C0250025402B7
:1004500082E0890F8093010282E080933C029F3FFB
:1004600019F481E080933C02FF91EF919F918F916D
:100470002F910F900BBE0F900FBE0F901F901895ED
:1004800090933B0283E0E9CF9093390284E0E5CF7B
:100490009093370285E0E1CF9093350286E0DDCF7F
:1004A0009093330287E0D9CF9093310288E0D5CF83
:1004B0001F920F920FB60F9211240BB60F922F932B
:1004C0008F939F93EF93FF939091C6009E3F19F5F2
:1004D0002091000280912E0228131BC080912D02D2
:1004E00080932C0280912B0280932A028091290212
:1004F0008093280280912702809326028091250212
:1005000080932402809123028093220281E08093D1
:10051000210210922E02E0912E02E150E730A8F461
:10052000F0E08827E956FD4F8F4F0C94FD069E02A0
:10053000B602BA02BE02C202C602CA0282E0890F35
:100540008093000282E080932E029F3F19F481E0A5
:1005500080932E02FF91EF919F918F912F910F9099
:100560000BBE0F900FBE0F901F90189590932D0209
:1005700083E0E9CF90932B0284E0E5CF90932902AA
:1005800085E0E1CF9093270286E0DDCF90932502AE
:1005900087E0D9CF9093230288E0D5CF1F920F92A6
:1005A0000FB60F9211248F939F93AF93BF938091B7
:1005B0001D0290911E02A0911F02B091200201968F
:1005C000A11DB11D80931D0290931E02A0931F02D6
:1005D000B0932002BF91AF919F918F910F900FBE6A
:1005E0000F901F901895CF93DF93CDB7DEB7C65409
:1005F000D1090FB6F894DEBF0FBECDBF28E120931E
:10060000D10096E09093D20049E150E05093D5009C
:100610004093D4008091D10080688093D1002093D2
:10062000C1009093C20088E090E09093C500809351
:10063000C4008091C10080688093C10010922001A5
:1006400088E08093210110922501109224018FE708
:100650009EE390932901809328018091730082602A
:1006600080937300809121018160809321017894AF
:1006700010BA889A8FEF84B987E080937A0080E47B
:1006800080937C0010927B0080917A008068809338
:100690007A00109280001092810080918000826028
:1006A000809380008091810080618093810080919F
:1006B0008000806A809380008091810082608093B6
:1006C000810080E29EE49093870080938600CE01B3
:1006D00001961C018E01035C1F4F80914A02882302
:1006E000A9F1F894F090470280914502809143026D
:1006F0008091410280913F0280913D027894109256
:100700004A021F92FF9284E092E09F938F933F9260
:100710002F920E941407C1010E94D4002F2D30E0B7
:10072000A8E8B3E10E9405070F900F900F900F907B
:100730000F900F902FEF33E040E050E00E94BC0696
:1007400028513C4F30938900209388008FB7F8944C
:10075000C0901D02D0901E02E0901F02F090200277
:100760008FBFD701C60188199909AA09BB09843628
:100770009105A105B10508F4B0CF80917B00877F7A
:1007800080937B0080917C00807E816080937C00E0
:1007900080917A00806480937A0080917A0086FD4F
:1007A000FCCF2091780030917900A8E8B3E10E9455
:1007B00005072AE096958795779567952A95D1F74D
:1007C0000E949D054B015C0120E030E040EA52E4CC
:1007D0000E944F0620E030EC49EC54E40E9484046F
:1007E0002B013C0120E030E048EC52E4C501B401AB
:1007F0000E944F0620E030E040EA51E40E9483046A
:100800009B01AC01C301B2010E94F5044B015C01E4
:1008100020E030E04AE754E40E944F060E9467055A
:100820002B013C0128EE33E040E050E00E94DE0660
:1008300097FF07C090958095709561957F4F8F4F7A
:100840009F4F9F938F937F936F93C301B20128EEC5
:1008500033E040E050E00E94DE065F934F933F9309
:100860002F9382E192E09F938F931F930F930E94A7
:100870001407C8010E94D40080E192E00E94D400D5
:100880008FEF93ED20E3815090402040E1F700C0CE
:1008900000000FB6F894DEBF0FBECDBF2DEC3CECD0
:1008A0004CE45EE3C501B4010E94F004881F882770
:1008B000881F90917B00977F90937B0090917C00A4
:1008C000907E90937C0090917A00906490937A004F
:1008D00090917A0096FDFCCF2091780030917900BC
:1008E0001F928F93C9011F921F929F932F9392E0A3
:1008F0009F930E94E0000FB6F894DEBF0FBECDBFFD
:1009000046015701EACE5058BB27AA270E949B04F4
:100910000C9415060E94070638F00E940E0620F07F
:1009200039F49F3F19F426F40C9404060EF4E09574
:10093000E7FB0C94FE05E92F0E94260658F3BA1730
:10094000620773078407950720F079F4A6F50C94E5
:1009500048060EF4E0950B2EBA2FA02D0B01B9011D
:1009600090010C01CA01A0011124FF27591B99F025
:10097000593F50F4503E68F11A16F040A22F232F31
:10098000342F4427585FF3CF469537952795A79581
:10099000F0405395C9F77EF41F16BA0B620B730B28
:1009A000840BBAF09150A1F0FF0FBB1F661F771F99
:1009B000881FC2F70EC0BA0F621F731F841F48F44E
:1009C000879577956795B795F7959E3F08F0B0CFD7
:1009D0009395880F08F09927EE0F979587950895BE
:1009E0000E94DA0508F481E008950E9409050C943C
:1009F00015060E940E0658F00E94070640F029F4E2
:100A00005F3F29F00C94FE0551110C9449060C949B
:100A100004060E94260668F39923B1F3552391F347
:100A2000951B550BBB27AA2762177307840738F05D
:100A30009F5F5F4F220F331F441FAA1FA9F335D0BA
:100A40000E2E3AF0E0E832D091505040E695001C6E
:100A5000CAF72BD0FE2F29D0660F771F881FBB1F28
:100A6000261737074807AB07B0E809F0BB0B802D06
:100A7000BF01FF2793585F4F3AF09E3F510578F032
:100A80000C94FE050C9449065F3FE4F3983ED4F3C2
:100A9000869577956795B795F7959F5FC9F7880F06
:100AA000911D9695879597F90895E1E0660F771F58
:100AB000881FBB1F621773078407BA0720F0621BE9
:100AC000730B840BBA0BEE1F88F7E09508950E9414
:100AD0006E056894B1110C94490608950E942E0683
:100AE00088F09F5798F0B92F9927B751B0F0E1F0EF
:100AF000660F771F881F991F1AF0BA95C9F714C09F
:100B0000B13091F00E944806B1E008950C94480677
:100B1000672F782F8827B85F39F0B93FCCF38695D7
:100B200077956795B395D9F73EF490958095709534
:100B300061957F4F8F4F9F4F0895E89409C097FBB1
:100B40003EF490958095709561957F4F8F4F9F4FA4
:100B50009923A9F0F92F96E9BB279395F6958795E8
:100B600077956795B795F111F8CFFAF4BB0F11F4AB
:100B700060FF1BC06F5F7F4F8F4F9F4F16C0882352
:100B800011F096E911C0772321F09EE8872F762F88
:100B900005C0662371F096E8862F70E060E02AF0C9
:100BA0009A95660F771F881FDAF7880F96958795B5
:100BB00097F90895990F0008550FAA0BE0E8FEEF8A
:100BC00016161706E807F907C0F012161306E40711
:100BD000F50798F0621B730B840B950B39F40A260A
:100BE00061F0232B242B252B21F408950A2609F4E8
:100BF000A140A6958FEF811D811D089597F99F67EC
:100C000080E870E060E008959FEF80EC0895002494
:100C10000A941616170618060906089500240A9461
:100C200012161306140605060895092E0394000CE7
:100C300011F4882352F0BB0F40F4BF2B11F460FF76
:100C400004C06F5F7F4F8F4F9F4F089557FD90589F
:100C5000440F551F59F05F3F71F04795880F97FB80
:100C6000991F61F09F3F79F087950895121613063A
:100C70001406551FF2CF4695F1DF08C01616170669
:100C80001806991FF1CF869571056105089408959E
:100C9000E894BB2766277727CB0197F908950E9430
:100CA00062060C9415060E94070638F00E940E0694
:100CB00020F0952311F00C94FE050C9404061124E9
:100CC0000C9449060E94260670F3959FC1F3950F78
:100CD00050E0551F629FF001729FBB27F00DB11DC0
:100CE000639FAA27F00DB11DAA1F649F6627B00D50
:100CF000A11D661F829F2227B00DA11D621F739F39
:100D0000B00DA11D621F839FA00D611D221F749F46
:100D10003327A00D611D231F849F600D211D822F8D
:100D2000762F6A2F11249F5750409AF0F1F08823B4
:100D30004AF0EE0FFF1FBB1F661F771F881F9150E1
:100D40005040A9F79E3F510580F00C94FE050C948D
:100D500049065F3FE4F3983ED4F38695779567950F
:100D6000B795F795E7959F5FC1F7FE2B880F911D0B
:100D70009695879597F90895A1E21A2EAA1BBB1B99
:100D8000FD010DC0AA1FBB1FEE1FFF1FA217B30757
:100D9000E407F50720F0A21BB30BE40BF50B661F6D
:100DA000771F881F991F1A9469F760957095809531
:100DB00090959B01AC01BD01CF010895052E97FBD5
:100DC0001EF400940E94F50657FD07D00E94BC0651
:100DD00007FC03D04EF40C94F506509540953095E1
:100DE00021953F4F4F4F5F4F089590958095709597
:100DF00061957F4F8F4F9F4F0895EE0FFF1F881F04
:100E00008BBF0790F691E02D1994A29FB001B39F7C
:100E1000C001A39F700D811D1124911DB29F700D03
:100E2000811D1124911D08950F931F93CF93DF937C
:100E3000CDB7DEB72E970FB6F894DEBF0FBECDBF8D
:100E40000E891F8986E08C831A8309838FEF9FE7C1
:100E50009E838D83AE01465E5F4F688D798DCE0196
:100E600001960E9444072F813885020F131FF80155
:100E700010822E960FB6F894DEBF0FBECDBFDF9165
:100E8000CF911F910F9108952F923F924F925F92B1
:100E90006F927F928F929F92AF92BF92CF92DF928A
:100EA000EF92FF920F931F93CF93DF9300D000D068
:100EB00000D01F921F92CDB7DEB77C013B018A01A3
:100EC000FC0117821682838181FFDDC1CE0101966C
:100ED0005C01F7019381F30193FD859193FF81916B
:100EE0003F01882309F453C1853239F493FD85917C
:100EF00093FF81913F01853229F4B70190E00E9470
:100F00005C09E7CF912C212C312CFFE1F31538F04F
:100F10008B3211F190F4803209F1833229F137FCE0
:100F20003CC020ED280F2A3050F536FE20C08AE064
:100F3000989E200D1124922E06C08D3291F08033A0
:100F400071F7689430F8F30193FD859193FF8191D7
:100F50003F018111DACF21C0689431F8689432F8EA
:100F6000F2CF689433F8EFCF689434F8ECCFEAE02E
:100F70002E9E200D1124222E689435F8E4CF8E3257
:100F800029F436FC04C1689436F8DDCF8C3619F4A8
:100F9000689437F8D8CF8836B1F2982F9F7D955452
:100FA0009330E0F08336A1F18337C1F1833509F046
:100FB00063C02801F2E04F0E511CF801C080D180BF
:100FC000692D70E036FC02C06FEF7FEFC6010E9412
:100FD00046094C01689437F882010AC00C5F1F4F24
:100FE000FFE3F98388248394912C6501E89437F812
:100FF00033FE2DC0522C8114910471F5552009F453
:1010000068CFB70180E290E00E945C095A94F6CF65
:10101000F801808189830E5F1F4FE4CF2801F2E041
:101020004F0E511CF801C080D180692D70E036FC54
:1010300002C06FEF7FEFC6010E9451094C0182018F
:10104000D5CFB70180E290E00E945C092A94281471
:10105000190409F0B0F7CECFF60137FC859137FEC1
:1010600081916F01B70190E00E945C0951105A9480
:10107000F1E08F1A9108BFCF843619F0893609F054
:1010800077C0F80137FE6BC06081718182819381E6
:101090000C5F1F4FF32DFF763F2E97FF09C09095F1
:1010A0008095709561957F4F8F4F9F4F689437F86B
:1010B0002AE030E0A5010E948C09C82ECA188C2CA9
:1010C000432C36FE0CC0E89440F8C91440F434FEBA
:1010D00005C032FC03C0F32DFE7E4F2E892C44FE4A
:1010E000AAC0FE01EC0DF11D8081803309F09CC087
:1010F000242D297E422E842D8870582E43FCAAC0B0
:1011000040FEA4C09C2C821418F42C0C922C98182D
:1011100044FEA6C0B70180E390E00E945C0942FE55
:1011200009C088E790E041FE02C088E590E0B70181
:101130000E945C09C91408F49FC0CA94D12C9FEF87
:10114000C91AD90ACA0CDB1CF60182916F01B701DA
:1011500090E00E945C09AC14BD04B1F74FCF6081F0
:101160007181072E000C880B990B0E5F1F4F92CFD9
:10117000D32CE894D4F82AE030E08537E1F1232D30
:10118000297FD22E8F36A9F1F0F4883551F1F7017D
:10119000868197812B960FB6F894DEBF0FBECDBF28
:1011A000DF91CF911F910F91FF90EF90DF90CF9043
:1011B000BF90AF909F908F907F906F905F904F9077
:1011C0003F902F900895803749F0883701F7D4FE7B
:1011D00002C06894D2F820E130E00DC06894D4F8E1
:1011E000F6CF34FE03C0822F8660D82E20E132E095
:1011F00002C028E030E0F801D7FE0FC060817181A5
:10120000828193810C5F1F4FA5010E948C09C82E1B
:10121000CA183D2CE89437F852CF6081718190E074
:1012200080E00E5F1F4FF0CF42FC02C0839463CF7B
:101230008394839460CF842D867809F45CCFF6CFB5
:10124000B70180E290E00E945C0983948214C0F3AD
:10125000512C5ECF522C5818821408F459CFF8CF75
:10126000842D867809F466CF8BE241FE80E247FC4C
:101270008DE2B70190E05CCFB70180E390E00E947F
:101280005C099A9457CF8FEF9FEF84CFFC010590B4
:10129000615070400110D8F7809590958E0F9F1F78
:1012A0000895FC016150704001900110D8F78095BD
:1012B00090958E0F9F1F08950F931F93CF93DF93E9
:1012C000182F092FEB018B8181FD09C01FEF0FEF54
:1012D000812F902FDF91CF911F910F91089582FF61
:1012E00014C02E813F818C819D81281739073CF4E1
:1012F000E881F981CF0101969983888310838E81DB
:101300009F8101969F838E83E3CFE885F985812FA6
:101310001995892BA1F3DACFFA01AA27283051F1C8
:10132000203181F1E8946F936E7F6E5F7F4F8F4F16
:101330009F4FAF4FB1E03ED0B4E03CD0670F781F75
:10134000891F9A1FA11D680F791F8A1F911DA11D5A
:101350006A0F711D811D911DA11D20D009F4689493
:101360003F912AE0269F11243019305D3193DEF63B
:10137000CF010895462F4770405D4193B3E00FD0F1
:10138000C9F7F6CF462F4F70405D4A3318F0495DDC
:1013900031FD4052419302D0A9F7EACFB4E0A695BF
:1013A0009795879577956795BA95C9F700976105E1
:1013B000710508959B01AC010A2E06945795479537
:1013C00037952795BA95C9F7620F731F841F951F2C
:0813D000A01D0895F894FFCF61
:1013D800060606064461746120313A2025347520DA
:0C13E8000A00256C642E2530336C640074
:00000001FF
