:100000000C94AA000C94CB000C94CB000C94CB0065
:100010000C94CB000C94CB000C94CB000C94CB0034
:100020000C94CB000C94CB000C94CB000C94CB0024
:100030000C94CB000C94CB000C94CB000C94CB0014
:100040000C94CB000C94CB000C94CB000C94CB0004
:100050000C94CB000C94CB000C94CB000C94CB00F4
:100060000C94CB000C9449020C94CB000C94CB0064
:100070000C94CB000C94CB000C94CB000C94CB00D4
:100080000C94CB000C94CB000C94CB000C94CB00C4
:100090000C94D3010C94CB000C94CB000C94CB00AB
:1000A0000C94CB000C94CB000C94CB000C94CB00A4
:1000B0000C94CB000C94CB000C94CB000C94BF029E
:1000C0000C94CB000C94CB000C94CB000C945D01F1
:1000D0000C94CB000C94CB000C94E7000C94CB0058
:1000E0000C94CB000C94B3020C94AF020C94A301BB
:1000F0000C9419020C94B7020C9431020C94BB02BC
:100100000C94C3010C948F020C942D010C94BF012C
:100110000C9439020C94AB020C94C7010C94550159
:100120000C9459010C94CB010C9445020C94CF0112
:100130000C944D010C94A7020C9441020C944901BB
:100140000C9445010C943D020C9451010C94BB019C
:100150000C94350211241FBECFEFD1E2DEBFCDBF1C
:1001600000E00CBF12E0A0E0B2E0EAE9FFE000E04E
:100170000BBF02C007900D92A834B107D9F722E057
:10018000A8E4B2E001C01D92AC38B207E1F70E94CA
:10019000E4020C94CB070C9400009091D00095FFE2
:1001A000FCCF8093D6000895CF93DF93CDB7DEB711
:1001B0008FEF0E94CD0081E00E94CD008F810E94D0
:1001C000CD008EEF0E94CD00DF91CF9108951F9258
:1001D0000F920FB60F9211240BB60F922F938F939D
:1001E0009F93EF93FF93909136019E3F19F52091D5
:1001F000030280918B0228131BC080918A02809396
:100200008902809188028093870280918602809380
:100210008502809184028093830280918202809380
:1002200081028091800280937F0281E080937E0230
:1002300010928B02E0918B02E150E730A8F4F0E0DD
:100240008827EA5DFE4F8F4F0C94B5042D014501C0
:1002500049014D0151015501590182E0890F8093F7
:10026000030282E080938B029F3F19F481E0809328
:100270008B02FF91EF919F918F912F910F900BBE69
:100280000F900FBE0F901F90189590938A0283E0F5
:10029000E9CF9093880284E0E5CF9093860285E0D1
:1002A000E1CF9093840286E0DDCF9093820287E0D5
:1002B000D9CF9093800288E0D5CF1F920F920FB6CE
:1002C0000F9211240BB60F922F938F939F93EF935E
:1002D000FF939091D6009E3F19F5209102028091E4
:1002E0007D0228131BC080917C0280937B02809149
:1002F0007A028093790280917802809377028091CC
:1003000076028093750280917402809373028091CB
:1003100072028093710281E08093700210927D02DC
:10032000E0917D02E150E730A8F4F0E08827E45640
:10033000FE4F8F4F0C94B504A301BB01BF01C30155
:10034000C701CB01CF0182E0890F8093020282E0D6
:1003500080937D029F3F19F481E080937D02FF919D
:10036000EF919F918F912F910F900BBE0F900FBE29
:100370000F901F90189590937C0283E0E9CF9093A3
:100380007A0284E0E5CF9093780285E0E1CF909304
:10039000760286E0DDCF9093740287E0D9CF909308
:1003A000720288E0D5CF1F920F920FB60F921124E0
:1003B0000BB60F922F938F939F93EF93FF93909190
:1003C000CE009E3F19F52091010280916F02281303
:1003D0001BC080916E0280936D0280916C028093AD
:1003E0006B0280916A028093690280916802809317
:1003F0006702809166028093650280916402809317
:10040000630281E08093620210926F02E0916F02BA
:10041000E150E730A8F4F0E08827EE5EFD4F8F4F03
:100420000C94B50419023102350239023D02410231
:10043000450282E0890F8093010282E080936F027F
:100440009F3F19F481E080936F02FF91EF919F919C
:100450008F912F910F900BBE0F900FBE0F901F909A
:10046000189590936E0283E0E9CF90936C0284E03C
:10047000E5CF90936A0285E0E1CF9093680286E031
:10048000DDCF9093660287E0D9CF9093640288E035
:10049000D5CF1F920F920FB60F9211240BB60F9269
:1004A0002F938F939F93EF93FF939091C6009E3F5E
:1004B00019F5209100028091610228131BC08091E0
:1004C000600280935F0280915E0280935D02809162
:1004D0005C0280935B0280915A0280935902809162
:1004E000580280935702809156028093550281E012
:1004F0008093540210926102E0916102E150E73072
:10050000A8F4F0E08827E857FD4F8F4F0C94B5040E
:100510008F02A702AB02AF02B302B702BB0282E0B6
:10052000890F8093000282E0809361029F3F19F45B
:1005300081E080936102FF91EF919F918F912F91C4
:100540000F900BBE0F900FBE0F901F9018959093B9
:10055000600283E0E9CF90935E0284E0E5CF909360
:100560005C0285E0E1CF90935A0286E0DDCF909364
:10057000580287E0D9CF9093560288E0D5CF1F92DA
:100580000F920FB60F9211248F939F93AF93BF9347
:100590008091500290915102A0915202B091530269
:1005A0000196A11DB11D8093500290935102A0931A
:1005B0005202B0935302BF91AF919F918F910F90D0
:1005C0000FBE0F901F901895CF93DF93CDB7DEB776
:1005D000EC970FB6F894DEBF0FBECDBF28E1209395
:1005E000D10096E09093D20049E150E05093D500BD
:1005F0004093D4008091D10080688093D1002093F3
:10060000C1009093C20088E090E09093C500809371
:10061000C4008091C10080688093C10010922001C5
:1006200088E08093210110922501109224018FE728
:100630009EE390932901809328018091730082604A
:1006400080937300809121018160809321017894CF
:1006500087E080937A0080E480937C0010927B0096
:1006600080917A00806880937A0010BA889A84B169
:10067000806684B981B18F6081B910928000109238
:100680008100809180008260809380008091810051
:1006900088618093810080918000806A80938000CF
:1006A0008091810082608093810080E197E2909345
:1006B0008700809386008E010F5F1F4F6FE7462EE5
:1006C000512C612C712C7FE7272E312C80917002E8
:1006D0008823C1F1F89480917B0220917902909156
:1006E00077029091750290917302909171027894C3
:1006F0001092700235E0839FC00111249595879573
:100700009595879590934F0280934E02239F900179
:100710001124359527953595279530934D022093D3
:100720004C023F932F939F938F9384E092E09F938B
:100730008F931F930F930E94F5040FB6F894DEBFBA
:100740000FBECDBF20914E0230914F022F5731097D
:1007500030934B0220934A0280914C0290914D02BB
:100760008F579109909349028093480220383105B0
:1007700024F030924B0220924A0220914A0230919A
:100780004B0221383F4F34F421E83FEF30934B02C6
:1007900020934A028038910524F030924902209239
:1007A0004802809148029091490281389F4F34F469
:1007B00081E89FEF9093490280934802809149021B
:1007C0008F93809148028F9380914B028F938091F9
:1007D0004A028F9326E232E03F932F931F930F93A9
:1007E0000E94F504F8010FB6F894DEBF0FBECDBF2E
:1007F000819181117AC0A0914A02B0914B02B7FF5A
:1008000003C0B195A195B10920E137E20E94BD0472
:10081000A30192010E9496043093890020938800DE
:10082000A0914802B0914902B7FF03C0B195A195CC
:10083000B10920E137E20E94BD04A30192010E94A8
:10084000960430938B0020938A0080914A02909105
:100850004B0297FD51C0109A1198809148029091D7
:10086000490297FD4CC0129A13988FB7F894C09024
:100870005002D0905102E0905202F09053028FBF8C
:10088000D701C60188199909AA09BB0984369105BF
:10089000A105B10508F41ACF80917B00877F809372
:1008A0007B0080917C00807E876080937C008091BB
:1008B0007A00806480937A0080917A0086FDFCCF74
:1008C000809178009091790065E070E00E94820448
:1008D00077277F936F9381E08F930E94D4000F90CE
:1008E0000F900F9046015701F1CE9091C00095FFF7
:1008F000FCCF8093C6007CCF119A1098AECF139A8C
:100900001298B3CFAA1BBB1B51E107C0AA1FBB1F84
:10091000A617B70710F0A61BB70B881F991F5A958B
:10092000A9F780959095BC01CD010895052E97FB00
:100930001EF400940E94AD0457FD07D00E94C40429
:1009400007FC03D04EF40C94AD04509540953095BF
:1009500021953F4F4F4F5F4F08959095809570952B
:1009600061957F4F8F4F9F4F0895EE0FFF1F881F98
:100970008BBF0790F691E02D19940E94E604B7FF13
:100980000895821B930B0895A1E21A2EAA1BBB1B8C
:10099000FD010DC0AA1FBB1FEE1FFF1FA217B3074B
:1009A000E407F50720F0A21BB30BE40BF50B661F61
:1009B000771F881F991F1A9469F760957095809525
:1009C00090959B01AC01BD01CF010895A29FB0019C
:1009D000B39FC001A39F700D811D1124911DB29F73
:1009E000700D811D1124911D08950F931F93CF93B6
:1009F000DF93CDB7DEB72E970FB6F894DEBF0FBEEC
:100A0000CDBF0E891F8986E08C831A8309838FEFFF
:100A10009FE79E838D83AE01465E5F4F688D798D23
:100A2000CE0101960E9425052F813885020F131FE4
:100A3000F80110822E960FB6F894DEBF0FBECDBF20
:100A4000DF91CF911F910F9108952F923F924F9276
:100A50005F926F927F928F929F92AF92BF92CF924E
:100A6000DF92EF92FF920F931F93CF93DF9300D00B
:100A700000D000D01F921F92CDB7DEB77C013B01A2
:100A80008A01FC0117821682838181FFDDC1CE01BC
:100A900001965C01F7019381F30193FD859193FF2A
:100AA00081913F01882309F453C1853239F493FDC4
:100AB000859193FF81913F01853229F4B70190E040
:100AC0000E943D07E7CF912C212C312CFFE1F3153B
:100AD00038F08B3211F190F4803209F1833229F130
:100AE00037FC3CC020ED280F2A3050F536FE20C0E0
:100AF0008AE0989E200D1124922E06C08D3291F02E
:100B0000803371F7689430F8F30193FD859193FF7A
:100B100081913F018111DACF21C0689431F8689446
:100B200032F8F2CF689433F8EFCF689434F8ECCF12
:100B3000EAE02E9E200D1124222E689435F8E4CF91
:100B40008E3229F436FC04C1689436F8DDCF8C3639
:100B500019F4689437F8D8CF8836B1F2982F9F7D72
:100B600095549330E0F08336A1F18337C1F183359A
:100B700009F063C02801F2E04F0E511CF801C0805B
:100B8000D180692D70E036FC02C06FEF7FEFC601A7
:100B90000E9427074C01689437F882010AC00C5F55
:100BA0001F4FFFE3F98388248394912C6501E89417
:100BB00037F833FE2DC0522C8114910471F5552065
:100BC00009F468CFB70180E290E00E943D075A9493
:100BD000F6CFF801808189830E5F1F4FE4CF280193
:100BE000F2E04F0E511CF801C080D180692D70E0F9
:100BF00036FC02C06FEF7FEFC6010E9432074C0146
:100C00008201D5CFB70180E290E00E943D072A948F
:100C10002814190409F0B0F7CECFF60137FC8591FE
:100C200037FE81916F01B70190E00E943D0751109E
:100C30005A94F1E08F1A9108BFCF843619F08936A3
:100C400009F077C0F80137FE6BC060817181828145
:100C500093810C5F1F4FF32DFF763F2E97FF09C046
:100C600090958095709561957F4F8F4F9F4F6894B9
:100C700037F82AE030E0A5010E946D07C82ECA1897
:100C80008C2C432C36FE0CC0E89440F8C91440F478
:100C900034FE05C032FC03C0F32DFE7E4F2E892C9E
:100CA00044FEAAC0FE01EC0DF11D8081803309F0E5
:100CB0009CC0242D297E422E842D8870582E43FC02
:100CC000AAC040FEA4C09C2C821418F42C0C922CB8
:100CD000981844FEA6C0B70180E390E00E943D074B
:100CE00042FE09C088E790E041FE02C088E590E03E
:100CF000B7010E943D07C91408F49FC0CA94D12CC3
:100D00009FEFC91AD90ACA0CDB1CF60182916F0148
:100D1000B70190E00E943D07AC14BD04B1F74FCF7E
:100D200060817181072E000C880B990B0E5F1F4F9D
:100D300092CFD32CE894D4F82AE030E08537E1F163
:100D4000232D297FD22E8F36A9F1F0F4883551F169
:100D5000F701868197812B960FB6F894DEBF0FBE00
:100D6000CDBFDF91CF911F910F91FF90EF90DF905A
:100D7000CF90BF90AF909F908F907F906F905F903B
:100D80004F903F902F900895803749F0883701F7B2
:100D9000D4FE02C06894D2F820E130E00DC068941F
:100DA000D4F8F6CF34FE03C0822F8660D82E20E11F
:100DB00032E002C028E030E0F801D7FE0FC06081C9
:100DC0007181828193810C5F1F4FA5010E946D0785
:100DD000C82ECA183D2CE89437F852CF6081718133
:100DE00090E080E00E5F1F4FF0CF42FC02C0839482
:100DF00063CF8394839460CF842D867809F45CCF8D
:100E0000F6CFB70180E290E00E943D078394821400
:100E1000C0F3512C5ECF522C5818821408F459CFCD
:100E2000F8CF842D867809F466CF8BE241FE80E20C
:100E300047FC8DE2B70190E05CCFB70180E390E022
:100E40000E943D079A9457CF8FEF9FEF84CFFC010C
:100E50000590615070400110D8F7809590958E0FE5
:100E60009F1F0895FC016150704001900110D8F758
:100E7000809590958E0F9F1F08950F931F93CF938A
:100E8000DF93182F092FEB018B8181FD09C01FEF24
:100E90000FEF812F902FDF91CF911F910F91089528
:100EA00082FF14C02E813F818C819D8128173907D4
:100EB0003CF4E881F981CF010196998388831083FE
:100EC0008E819F8101969F838E83E3CFE885F9858C
:100ED000812F1995892BA1F3DACFFA01AA2728309F
:100EE00051F1203181F1E8946F936E7F6E5F7F4FF7
:100EF0008F4F9F4FAF4FB1E03ED0B4E03CD0670F73
:100F0000781F891F9A1FA11D680F791F8A1F911DC5
:100F1000A11D6A0F711D811D911DA11D20D009F415
:100F200068943F912AE0269F11243019305D319357
:100F3000DEF6CF010895462F4770405D4193B3E040
:100F40000FD0C9F7F6CF462F4F70405D4A3318F0E7
:100F5000495D31FD4052419302D0A9F7EACFB4E098
:100F6000A6959795879577956795BA95C9F7009750
:100F70006105710508959B01AC010A2E06945795F1
:100F8000479537952795BA95C9F7620F731F841F48
:0A0F9000951FA01D0895F894FFCFEF
:100F9A00060606064A6F79737469636B20313A2034
:100FAA00253375204A6F79737469636B20323A204E
:100FBA00253375200A004A6F79737469636B20318F
:100FCA003A20253364204A6F79737469636B20323F
:080FDA003A20253364200A00CF
:00000001FF
